{
  "_format": "hh-sol-artifact-1",
  "contractName": "PiggybankFactory",
  "sourceName": "contracts/piggyfactory.sol",
  "abi": [
    {
      "inputs": [],
      "stateMutability": "nonpayable",
      "type": "constructor"
    },
    {
      "anonymous": false,
      "inputs": [
        {
          "indexed": true,
          "internalType": "address",
          "name": "piggybankAddress",
          "type": "address"
        },
        {
          "indexed": true,
          "internalType": "address",
          "name": "creator",
          "type": "address"
        }
      ],
      "name": "PiggybankCreated",
      "type": "event"
    },
    {
      "inputs": [],
      "name": "createPiggybank",
      "outputs": [
        {
          "internalType": "address",
          "name": "",
          "type": "address"
        }
      ],
      "stateMutability": "nonpayable",
      "type": "function"
    },
    {
      "inputs": [],
      "name": "getAllPiggybanks",
      "outputs": [
        {
          "internalType": "contract Piggybank[]",
          "name": "",
          "type": "address[]"
        }
      ],
      "stateMutability": "view",
      "type": "function"
    },
    {
      "inputs": [],
      "name": "owner",
      "outputs": [
        {
          "internalType": "address",
          "name": "",
          "type": "address"
        }
      ],
      "stateMutability": "view",
      "type": "function"
    },
    {
      "inputs": [
        {
          "internalType": "uint256",
          "name": "",
          "type": "uint256"
        }
      ],
      "name": "piggybanks",
      "outputs": [
        {
          "internalType": "contract Piggybank",
          "name": "",
          "type": "address"
        }
      ],
      "stateMutability": "view",
      "type": "function"
    }
  ],
  "bytecode": "0x6080604052348015600f57600080fd5b50336000806101000a81548173ffffffffffffffffffffffffffffffffffffffff021916908373ffffffffffffffffffffffffffffffffffffffff16021790555061191f8061005f6000396000f3fe608060405234801561001057600080fd5b506004361061004c5760003560e01c80632ff2248f146100515780637c12b5a2146100815780638da5cb5b1461009f5780639fde2165146100bd575b600080fd5b61006b60048036038101906100669190610331565b6100db565b60405161007891906103dd565b60405180910390f35b61008961011a565b6040516100969190610419565b60405180910390f35b6100a7610237565b6040516100b49190610419565b60405180910390f35b6100c561025b565b6040516100d291906104f2565b60405180910390f35b600181815481106100eb57600080fd5b906000526020600020016000915054906101000a900473ffffffffffffffffffffffffffffffffffffffff1681565b60008060008054906101000a900473ffffffffffffffffffffffffffffffffffffffff1660405161014a906102e9565b6101549190610419565b604051809103906000f080158015610170573d6000803e3d6000fd5b5090506001819080600181540180825580915050600190039060005260206000200160009091909190916101000a81548173ffffffffffffffffffffffffffffffffffffffff021916908373ffffffffffffffffffffffffffffffffffffffff1602179055503373ffffffffffffffffffffffffffffffffffffffff168173ffffffffffffffffffffffffffffffffffffffff167f60d6d6518eb78f1d6ad29bd265e1379314586c9f350033ed66f650f2b7ade35460405160405180910390a38091505090565b60008054906101000a900473ffffffffffffffffffffffffffffffffffffffff1681565b606060018054806020026020016040519081016040528092919081815260200182805480156102df57602002820191906000526020600020905b8160009054906101000a900473ffffffffffffffffffffffffffffffffffffffff1673ffffffffffffffffffffffffffffffffffffffff1681526020019060010190808311610295575b5050505050905090565b6113d58061051583390190565b600080fd5b6000819050919050565b61030e816102fb565b811461031957600080fd5b50565b60008135905061032b81610305565b92915050565b600060208284031215610347576103466102f6565b5b60006103558482850161031c565b91505092915050565b600073ffffffffffffffffffffffffffffffffffffffff82169050919050565b6000819050919050565b60006103a361039e6103998461035e565b61037e565b61035e565b9050919050565b60006103b582610388565b9050919050565b60006103c7826103aa565b9050919050565b6103d7816103bc565b82525050565b60006020820190506103f260008301846103ce565b92915050565b60006104038261035e565b9050919050565b610413816103f8565b82525050565b600060208201905061042e600083018461040a565b92915050565b600081519050919050565b600082825260208201905092915050565b6000819050602082019050919050565b610469816103bc565b82525050565b600061047b8383610460565b60208301905092915050565b6000602082019050919050565b600061049f82610434565b6104a9818561043f565b93506104b483610450565b8060005b838110156104e55781516104cc888261046f565b97506104d783610487565b9250506001810190506104b8565b5085935050505092915050565b6000602082019050818103600083015261050c8184610494565b90509291505056fe608060405234801561001057600080fd5b506040516113d53803806113d5833981810160405281019061003291906100db565b806000806101000a81548173ffffffffffffffffffffffffffffffffffffffff021916908373ffffffffffffffffffffffffffffffffffffffff16021790555050610108565b600080fd5b600073ffffffffffffffffffffffffffffffffffffffff82169050919050565b60006100a88261007d565b9050919050565b6100b88161009d565b81146100c357600080fd5b50565b6000815190506100d5816100af565b92915050565b6000602082840312156100f1576100f0610078565b5b60006100ff848285016100c6565b91505092915050565b6112be806101176000396000f3fe60806040526004361061003f5760003560e01c80632e1a7d4d146100445780634273601c1461006d57806353fc2f3414610098578063bc157ac1146100da575b600080fd5b34801561005057600080fd5b5061006b60048036038101906100669190610a54565b6100f6565b005b34801561007957600080fd5b506100826105da565b60405161008f9190610ac2565b60405180910390f35b3480156100a457600080fd5b506100bf60048036038101906100ba9190610b09565b6105fe565b6040516100d196959493929190610b58565b60405180910390f35b6100f460048036038101906100ef9190610bb9565b610697565b005b600160003373ffffffffffffffffffffffffffffffffffffffff1673ffffffffffffffffffffffffffffffffffffffff16815260200190815260200160002080549050811061017a576040517f08c379a000000000000000000000000000000000000000000000000000000000815260040161017190610c69565b60405180910390fd5b6000600160003373ffffffffffffffffffffffffffffffffffffffff1673ffffffffffffffffffffffffffffffffffffffff16815260200190815260200160002082815481106101cd576101cc610c89565b5b906000526020600020906006020190506000816005015411610224576040517f08c379a000000000000000000000000000000000000000000000000000000000815260040161021b90610d04565b60405180910390fd5b60008160030154826001015461023a9190610d53565b4210905060008260050154905081156104445760006064600385600501546102629190610d87565b61026c9190610df8565b9050808261027a9190610e29565b9150600073ffffffffffffffffffffffffffffffffffffffff168460040160009054906101000a900473ffffffffffffffffffffffffffffffffffffffff1673ffffffffffffffffffffffffffffffffffffffff16036103405760008054906101000a900473ffffffffffffffffffffffffffffffffffffffff1673ffffffffffffffffffffffffffffffffffffffff166108fc829081150290604051600060405180830381858888f1935050505015801561033a573d6000803e3d6000fd5b50610442565b8360040160009054906101000a900473ffffffffffffffffffffffffffffffffffffffff1673ffffffffffffffffffffffffffffffffffffffff1663a9059cbb60008054906101000a900473ffffffffffffffffffffffffffffffffffffffff16836040518363ffffffff1660e01b81526004016103bf929190610e5d565b6020604051808303816000875af11580156103de573d6000803e3d6000fd5b505050506040513d601f19601f820116820180604052508101906104029190610ebe565b610441576040517f08c379a000000000000000000000000000000000000000000000000000000000815260040161043890610f37565b60405180910390fd5b5b505b600073ffffffffffffffffffffffffffffffffffffffff168360040160009054906101000a900473ffffffffffffffffffffffffffffffffffffffff1673ffffffffffffffffffffffffffffffffffffffff16036104e8573373ffffffffffffffffffffffffffffffffffffffff166108fc829081150290604051600060405180830381858888f193505050501580156104e2573d6000803e3d6000fd5b506105ca565b8260040160009054906101000a900473ffffffffffffffffffffffffffffffffffffffff1673ffffffffffffffffffffffffffffffffffffffff1663a9059cbb33836040518363ffffffff1660e01b8152600401610547929190610e5d565b6020604051808303816000875af1158015610566573d6000803e3d6000fd5b505050506040513d601f19601f8201168201806040525081019061058a9190610ebe565b6105c9576040517f08c379a00000000000000000000000000000000000000000000000000000000081526004016105c090610fa3565b60405180910390fd5b5b6000836005018190555050505050565b60008054906101000a900473ffffffffffffffffffffffffffffffffffffffff1681565b6001602052816000526040600020818154811061061a57600080fd5b9060005260206000209060060201600091509150508060000160009054906101000a900473ffffffffffffffffffffffffffffffffffffffff16908060010154908060020154908060030154908060040160009054906101000a900473ffffffffffffffffffffffffffffffffffffffff16908060050154905086565b600083116106da576040517f08c379a00000000000000000000000000000000000000000000000000000000081526004016106d190611035565b60405180910390fd5b6000811161071d576040517f08c379a0000000000000000000000000000000000000000000000000000000008152600401610714906110c7565b60405180910390fd5b600073ffffffffffffffffffffffffffffffffffffffff168273ffffffffffffffffffffffffffffffffffffffff160361079857823414610793576040517f08c379a000000000000000000000000000000000000000000000000000000000815260040161078a90611133565b60405180910390fd5b61089b565b600034146107db576040517f08c379a00000000000000000000000000000000000000000000000000000000081526004016107d2906111c5565b60405180910390fd5b8173ffffffffffffffffffffffffffffffffffffffff166323b872dd3330866040518463ffffffff1660e01b8152600401610818939291906111e5565b6020604051808303816000875af1158015610837573d6000803e3d6000fd5b505050506040513d601f19601f8201168201806040525081019061085b9190610ebe565b61089a576040517f08c379a000000000000000000000000000000000000000000000000000000000815260040161089190611268565b60405180910390fd5b5b600160003373ffffffffffffffffffffffffffffffffffffffff1673ffffffffffffffffffffffffffffffffffffffff1681526020019081526020016000206040518060c001604052803373ffffffffffffffffffffffffffffffffffffffff1681526020014281526020018581526020018381526020018473ffffffffffffffffffffffffffffffffffffffff16815260200185815250908060018154018082558091505060019003906000526020600020906006020160009091909190915060008201518160000160006101000a81548173ffffffffffffffffffffffffffffffffffffffff021916908373ffffffffffffffffffffffffffffffffffffffff16021790555060208201518160010155604082015181600201556060820151816003015560808201518160040160006101000a81548173ffffffffffffffffffffffffffffffffffffffff021916908373ffffffffffffffffffffffffffffffffffffffff16021790555060a082015181600501555050505050565b600080fd5b6000819050919050565b610a3181610a1e565b8114610a3c57600080fd5b50565b600081359050610a4e81610a28565b92915050565b600060208284031215610a6a57610a69610a19565b5b6000610a7884828501610a3f565b91505092915050565b600073ffffffffffffffffffffffffffffffffffffffff82169050919050565b6000610aac82610a81565b9050919050565b610abc81610aa1565b82525050565b6000602082019050610ad76000830184610ab3565b92915050565b610ae681610aa1565b8114610af157600080fd5b50565b600081359050610b0381610add565b92915050565b60008060408385031215610b2057610b1f610a19565b5b6000610b2e85828601610af4565b9250506020610b3f85828601610a3f565b9150509250929050565b610b5281610a1e565b82525050565b600060c082019050610b6d6000830189610ab3565b610b7a6020830188610b49565b610b876040830187610b49565b610b946060830186610b49565b610ba16080830185610ab3565b610bae60a0830184610b49565b979650505050505050565b600080600060608486031215610bd257610bd1610a19565b5b6000610be086828701610a3f565b9350506020610bf186828701610af4565b9250506040610c0286828701610a3f565b9150509250925092565b600082825260208201905092915050565b7f496e76616c696420706c616e20696e6465780000000000000000000000000000600082015250565b6000610c53601283610c0c565b9150610c5e82610c1d565b602082019050919050565b60006020820190508181036000830152610c8281610c46565b9050919050565b7f4e487b7100000000000000000000000000000000000000000000000000000000600052603260045260246000fd5b7f416c72656164792077697468647261776e000000000000000000000000000000600082015250565b6000610cee601183610c0c565b9150610cf982610cb8565b602082019050919050565b60006020820190508181036000830152610d1d81610ce1565b9050919050565b7f4e487b7100000000000000000000000000000000000000000000000000000000600052601160045260246000fd5b6000610d5e82610a1e565b9150610d6983610a1e565b9250828201905080821115610d8157610d80610d24565b5b92915050565b6000610d9282610a1e565b9150610d9d83610a1e565b9250828202610dab81610a1e565b91508282048414831517610dc257610dc1610d24565b5b5092915050565b7f4e487b7100000000000000000000000000000000000000000000000000000000600052601260045260246000fd5b6000610e0382610a1e565b9150610e0e83610a1e565b925082610e1e57610e1d610dc9565b5b828204905092915050565b6000610e3482610a1e565b9150610e3f83610a1e565b9250828203905081811115610e5757610e56610d24565b5b92915050565b6000604082019050610e726000830185610ab3565b610e7f6020830184610b49565b9392505050565b60008115159050919050565b610e9b81610e86565b8114610ea657600080fd5b50565b600081519050610eb881610e92565b92915050565b600060208284031215610ed457610ed3610a19565b5b6000610ee284828501610ea9565b91505092915050565b7f466565207472616e73666572206661696c656400000000000000000000000000600082015250565b6000610f21601383610c0c565b9150610f2c82610eeb565b602082019050919050565b60006020820190508181036000830152610f5081610f14565b9050919050565b7f546f6b656e207769746864726177616c206661696c6564000000000000000000600082015250565b6000610f8d601783610c0c565b9150610f9882610f57565b602082019050919050565b60006020820190508181036000830152610fbc81610f80565b9050919050565b7f4465706f73697420616d6f756e742073686f756c64206265206772656174657260008201527f207468616e203000000000000000000000000000000000000000000000000000602082015250565b600061101f602783610c0c565b915061102a82610fc3565b604082019050919050565b6000602082019050818103600083015261104e81611012565b9050919050565b7f4c6f636b20706572696f642073686f756c64206265206d6f7265207468616e2060008201527f3000000000000000000000000000000000000000000000000000000000000000602082015250565b60006110b1602183610c0c565b91506110bc82611055565b604082019050919050565b600060208201905081810360008301526110e0816110a4565b9050919050565b7f496e76616c69642045544820416d6f756e740000000000000000000000000000600082015250565b600061111d601283610c0c565b9150611128826110e7565b602082019050919050565b6000602082019050818103600083015261114c81611110565b9050919050565b7f455448206e6f7420616c6c6f77656420666f7220746f6b656e206465706f736960008201527f7400000000000000000000000000000000000000000000000000000000000000602082015250565b60006111af602183610c0c565b91506111ba82611153565b604082019050919050565b600060208201905081810360008301526111de816111a2565b9050919050565b60006060820190506111fa6000830186610ab3565b6112076020830185610ab3565b6112146040830184610b49565b949350505050565b7f546f6b656e207472616e73666572206661696c65640000000000000000000000600082015250565b6000611252601583610c0c565b915061125d8261121c565b602082019050919050565b6000602082019050818103600083015261128181611245565b905091905056fea264697066735822122066f50e1c89b77d0a15cd60b642a9484d4c1a33421886cc017a14c8d28823daa464736f6c634300081e0033a2646970667358221220a5e98fda1d2ae70dd596eea0f43791f1b11928161650fc3a362fcb2cf4285fb864736f6c634300081e0033",
  "linkReferences": {},
  "deployedLinkReferences": {}
}