{
  "_format": "hh-sol-artifact-1",
  "contractName": "ERC20",
  "sourceName": "contracts/Erc.sol",
  "abi": [
    {
      "inputs": [],
      "stateMutability": "nonpayable",
      "type": "constructor"
    },
    {
      "anonymous": false,
      "inputs": [
        {
          "indexed": true,
          "internalType": "address",
          "name": "_owner",
          "type": "address"
        },
        {
          "indexed": true,
          "internalType": "address",
          "name": "_spender",
          "type": "address"
        },
        {
          "indexed": false,
          "internalType": "uint256",
          "name": "_value",
          "type": "uint256"
        }
      ],
      "name": "Approval",
      "type": "event"
    },
    {
      "anonymous": false,
      "inputs": [
        {
          "indexed": true,
          "internalType": "address",
          "name": "_from",
          "type": "address"
        },
        {
          "indexed": true,
          "internalType": "address",
          "name": "_to",
          "type": "address"
        },
        {
          "indexed": false,
          "internalType": "uint256",
          "name": "_value",
          "type": "uint256"
        }
      ],
      "name": "Transfer",
      "type": "event"
    },
    {
      "inputs": [
        {
          "internalType": "address",
          "name": "_owner",
          "type": "address"
        },
        {
          "internalType": "address",
          "name": "_spender",
          "type": "address"
        }
      ],
      "name": "allowance",
      "outputs": [
        {
          "internalType": "uint256",
          "name": "remaining",
          "type": "uint256"
        }
      ],
      "stateMutability": "view",
      "type": "function"
    },
    {
      "inputs": [
        {
          "internalType": "address",
          "name": "_spender",
          "type": "address"
        },
        {
          "internalType": "uint256",
          "name": "_value",
          "type": "uint256"
        }
      ],
      "name": "approve",
      "outputs": [
        {
          "internalType": "bool",
          "name": "success",
          "type": "bool"
        }
      ],
      "stateMutability": "nonpayable",
      "type": "function"
    },
    {
      "inputs": [
        {
          "internalType": "address",
          "name": "_owner",
          "type": "address"
        }
      ],
      "name": "balanceOf",
      "outputs": [
        {
          "internalType": "uint256",
          "name": "balance",
          "type": "uint256"
        }
      ],
      "stateMutability": "view",
      "type": "function"
    },
    {
      "inputs": [],
      "name": "decimals",
      "outputs": [
        {
          "internalType": "uint8",
          "name": "",
          "type": "uint8"
        }
      ],
      "stateMutability": "view",
      "type": "function"
    },
    {
      "inputs": [],
      "name": "name",
      "outputs": [
        {
          "internalType": "string",
          "name": "",
          "type": "string"
        }
      ],
      "stateMutability": "view",
      "type": "function"
    },
    {
      "inputs": [],
      "name": "owner",
      "outputs": [
        {
          "internalType": "address",
          "name": "",
          "type": "address"
        }
      ],
      "stateMutability": "view",
      "type": "function"
    },
    {
      "inputs": [],
      "name": "symbol",
      "outputs": [
        {
          "internalType": "string",
          "name": "",
          "type": "string"
        }
      ],
      "stateMutability": "view",
      "type": "function"
    },
    {
      "inputs": [],
      "name": "token",
      "outputs": [
        {
          "internalType": "string",
          "name": "name",
          "type": "string"
        },
        {
          "internalType": "string",
          "name": "symbol",
          "type": "string"
        },
        {
          "internalType": "uint8",
          "name": "decimals",
          "type": "uint8"
        }
      ],
      "stateMutability": "view",
      "type": "function"
    },
    {
      "inputs": [],
      "name": "totalSupply",
      "outputs": [
        {
          "internalType": "uint256",
          "name": "",
          "type": "uint256"
        }
      ],
      "stateMutability": "view",
      "type": "function"
    },
    {
      "inputs": [
        {
          "internalType": "address",
          "name": "_to",
          "type": "address"
        },
        {
          "internalType": "uint256",
          "name": "_value",
          "type": "uint256"
        }
      ],
      "name": "transfer",
      "outputs": [
        {
          "internalType": "bool",
          "name": "success",
          "type": "bool"
        }
      ],
      "stateMutability": "nonpayable",
      "type": "function"
    },
    {
      "inputs": [
        {
          "internalType": "address",
          "name": "_from",
          "type": "address"
        },
        {
          "internalType": "address",
          "name": "_to",
          "type": "address"
        },
        {
          "internalType": "uint256",
          "name": "_value",
          "type": "uint256"
        }
      ],
      "name": "transferFrom",
      "outputs": [
        {
          "internalType": "bool",
          "name": "success",
          "type": "bool"
        }
      ],
      "stateMutability": "nonpayable",
      "type": "function"
    }
  ],
  "bytecode": "0x608060405234801561001057600080fd5b50336000806101000a81548173ffffffffffffffffffffffffffffffffffffffff021916908373ffffffffffffffffffffffffffffffffffffffff160217905550620f4240600160003373ffffffffffffffffffffffffffffffffffffffff1673ffffffffffffffffffffffffffffffffffffffff16815260200190815260200160002081905550620f424060068190555060405180606001604052806040518060400160405280600381526020017f454241000000000000000000000000000000000000000000000000000000000081525081526020016040518060400160405280600581526020017f47617272690000000000000000000000000000000000000000000000000000008152508152602001601260ff168152506003600082015181600001908161014291906103d2565b50602082015181600101908161015891906103d2565b5060408201518160020160006101000a81548160ff021916908360ff1602179055509050506104a4565b600081519050919050565b7f4e487b7100000000000000000000000000000000000000000000000000000000600052604160045260246000fd5b7f4e487b7100000000000000000000000000000000000000000000000000000000600052602260045260246000fd5b6000600282049050600182168061020357607f821691505b602082108103610216576102156101bc565b5b50919050565b60008190508160005260206000209050919050565b60006020601f8301049050919050565b600082821b905092915050565b60006008830261027e7fffffffffffffffffffffffffffffffffffffffffffffffffffffffffffffffff82610241565b6102888683610241565b95508019841693508086168417925050509392505050565b6000819050919050565b6000819050919050565b60006102cf6102ca6102c5846102a0565b6102aa565b6102a0565b9050919050565b6000819050919050565b6102e9836102b4565b6102fd6102f5826102d6565b84845461024e565b825550505050565b600090565b610312610305565b61031d8184846102e0565b505050565b5b818110156103415761033660008261030a565b600181019050610323565b5050565b601f821115610386576103578161021c565b61036084610231565b8101602085101561036f578190505b61038361037b85610231565b830182610322565b50505b505050565b600082821c905092915050565b60006103a96000198460080261038b565b1980831691505092915050565b60006103c28383610398565b9150826002028217905092915050565b6103db82610182565b67ffffffffffffffff8111156103f4576103f361018d565b5b6103fe82546101eb565b610409828285610345565b600060209050601f83116001811461043c576000841561042a578287015190505b61043485826103b6565b86555061049c565b601f19841661044a8661021c565b60005b828110156104725784890151825560018201915060208501945060208101905061044d565b8683101561048f578489015161048b601f891682610398565b8355505b6001600288020188555050505b505050505050565b6111bb806104b36000396000f3fe608060405234801561001057600080fd5b50600436106100a95760003560e01c806370a082311161007157806370a08231146101685780638da5cb5b1461019857806395d89b41146101b6578063a9059cbb146101d4578063dd62ed3e14610204578063fc0c546a14610234576100a9565b806306fdde03146100ae578063095ea7b3146100cc57806318160ddd146100fc57806323b872dd1461011a578063313ce5671461014a575b600080fd5b6100b6610254565b6040516100c39190610c1d565b60405180910390f35b6100e660048036038101906100e19190610cd8565b6102e9565b6040516100f39190610d33565b60405180910390f35b6101046103db565b6040516101119190610d5d565b60405180910390f35b610134600480360381019061012f9190610d78565b6103e1565b6040516101419190610d33565b60405180910390f35b610152610716565b60405161015f9190610de7565b60405180910390f35b610182600480360381019061017d9190610e02565b610730565b60405161018f9190610d5d565b60405180910390f35b6101a0610779565b6040516101ad9190610e3e565b60405180910390f35b6101be61079d565b6040516101cb9190610c1d565b60405180910390f35b6101ee60048036038101906101e99190610cd8565b610832565b6040516101fb9190610d33565b60405180910390f35b61021e60048036038101906102199190610e59565b6109d1565b60405161022b9190610d5d565b60405180910390f35b61023c610a58565b60405161024b93929190610e99565b60405180910390f35b60606003600001805461026690610f0d565b80601f016020809104026020016040519081016040528092919081815260200182805461029290610f0d565b80156102df5780601f106102b4576101008083540402835291602001916102df565b820191906000526020600020905b8154815290600101906020018083116102c257829003601f168201915b5050505050905090565b600081600260003373ffffffffffffffffffffffffffffffffffffffff1673ffffffffffffffffffffffffffffffffffffffff16815260200190815260200160002060008573ffffffffffffffffffffffffffffffffffffffff1673ffffffffffffffffffffffffffffffffffffffff168152602001908152602001600020819055508273ffffffffffffffffffffffffffffffffffffffff163373ffffffffffffffffffffffffffffffffffffffff167f8c5be1e5ebec7d5bd14f71427d1e84f3dd0314c0f7b2291e5b200ac8c7c3b925846040516103c99190610d5d565b60405180910390a36001905092915050565b60065481565b600081600160008673ffffffffffffffffffffffffffffffffffffffff1673ffffffffffffffffffffffffffffffffffffffff168152602001908152602001600020541015610465576040517f08c379a000000000000000000000000000000000000000000000000000000000815260040161045c90610f8a565b60405180910390fd5b81600260008673ffffffffffffffffffffffffffffffffffffffff1673ffffffffffffffffffffffffffffffffffffffff16815260200190815260200160002060003373ffffffffffffffffffffffffffffffffffffffff1673ffffffffffffffffffffffffffffffffffffffff168152602001908152602001600020541015610524576040517f08c379a000000000000000000000000000000000000000000000000000000000815260040161051b90610ff6565b60405180910390fd5b60008211610567576040517f08c379a000000000000000000000000000000000000000000000000000000000815260040161055e90611062565b60405180910390fd5b81600160008673ffffffffffffffffffffffffffffffffffffffff1673ffffffffffffffffffffffffffffffffffffffff16815260200190815260200160002060008282546105b691906110b1565b9250508190555081600160008573ffffffffffffffffffffffffffffffffffffffff1673ffffffffffffffffffffffffffffffffffffffff168152602001908152602001600020600082825461060c91906110e5565b9250508190555081600260008673ffffffffffffffffffffffffffffffffffffffff1673ffffffffffffffffffffffffffffffffffffffff16815260200190815260200160002060003373ffffffffffffffffffffffffffffffffffffffff1673ffffffffffffffffffffffffffffffffffffffff168152602001908152602001600020600082825461069f91906110b1565b925050819055508273ffffffffffffffffffffffffffffffffffffffff168473ffffffffffffffffffffffffffffffffffffffff167fddf252ad1be2c89b69c2b068fc378daa952ba7f163c4a11628f55a4df523b3ef846040516107039190610d5d565b60405180910390a3600190509392505050565b6000600360020160009054906101000a900460ff16905090565b6000600160008373ffffffffffffffffffffffffffffffffffffffff1673ffffffffffffffffffffffffffffffffffffffff168152602001908152602001600020549050919050565b60008054906101000a900473ffffffffffffffffffffffffffffffffffffffff1681565b6060600360010180546107af90610f0d565b80601f01602080910402602001604051908101604052809291908181526020018280546107db90610f0d565b80156108285780601f106107fd57610100808354040283529160200191610828565b820191906000526020600020905b81548152906001019060200180831161080b57829003601f168201915b5050505050905090565b600081600160003373ffffffffffffffffffffffffffffffffffffffff1673ffffffffffffffffffffffffffffffffffffffff1681526020019081526020016000205410156108b6576040517f08c379a00000000000000000000000000000000000000000000000000000000081526004016108ad90611165565b60405180910390fd5b81600160003373ffffffffffffffffffffffffffffffffffffffff1673ffffffffffffffffffffffffffffffffffffffff168152602001908152602001600020600082825461090591906110b1565b9250508190555081600160008573ffffffffffffffffffffffffffffffffffffffff1673ffffffffffffffffffffffffffffffffffffffff168152602001908152602001600020600082825461095b91906110e5565b925050819055508273ffffffffffffffffffffffffffffffffffffffff163373ffffffffffffffffffffffffffffffffffffffff167fddf252ad1be2c89b69c2b068fc378daa952ba7f163c4a11628f55a4df523b3ef846040516109bf9190610d5d565b60405180910390a36001905092915050565b6000600260008473ffffffffffffffffffffffffffffffffffffffff1673ffffffffffffffffffffffffffffffffffffffff16815260200190815260200160002060008373ffffffffffffffffffffffffffffffffffffffff1673ffffffffffffffffffffffffffffffffffffffff16815260200190815260200160002054905092915050565b6003806000018054610a6990610f0d565b80601f0160208091040260200160405190810160405280929190818152602001828054610a9590610f0d565b8015610ae25780601f10610ab757610100808354040283529160200191610ae2565b820191906000526020600020905b815481529060010190602001808311610ac557829003601f168201915b505050505090806001018054610af790610f0d565b80601f0160208091040260200160405190810160405280929190818152602001828054610b2390610f0d565b8015610b705780601f10610b4557610100808354040283529160200191610b70565b820191906000526020600020905b815481529060010190602001808311610b5357829003601f168201915b5050505050908060020160009054906101000a900460ff16905083565b600081519050919050565b600082825260208201905092915050565b60005b83811015610bc7578082015181840152602081019050610bac565b60008484015250505050565b6000601f19601f8301169050919050565b6000610bef82610b8d565b610bf98185610b98565b9350610c09818560208601610ba9565b610c1281610bd3565b840191505092915050565b60006020820190508181036000830152610c378184610be4565b905092915050565b600080fd5b600073ffffffffffffffffffffffffffffffffffffffff82169050919050565b6000610c6f82610c44565b9050919050565b610c7f81610c64565b8114610c8a57600080fd5b50565b600081359050610c9c81610c76565b92915050565b6000819050919050565b610cb581610ca2565b8114610cc057600080fd5b50565b600081359050610cd281610cac565b92915050565b60008060408385031215610cef57610cee610c3f565b5b6000610cfd85828601610c8d565b9250506020610d0e85828601610cc3565b9150509250929050565b60008115159050919050565b610d2d81610d18565b82525050565b6000602082019050610d486000830184610d24565b92915050565b610d5781610ca2565b82525050565b6000602082019050610d726000830184610d4e565b92915050565b600080600060608486031215610d9157610d90610c3f565b5b6000610d9f86828701610c8d565b9350506020610db086828701610c8d565b9250506040610dc186828701610cc3565b9150509250925092565b600060ff82169050919050565b610de181610dcb565b82525050565b6000602082019050610dfc6000830184610dd8565b92915050565b600060208284031215610e1857610e17610c3f565b5b6000610e2684828501610c8d565b91505092915050565b610e3881610c64565b82525050565b6000602082019050610e536000830184610e2f565b92915050565b60008060408385031215610e7057610e6f610c3f565b5b6000610e7e85828601610c8d565b9250506020610e8f85828601610c8d565b9150509250929050565b60006060820190508181036000830152610eb38186610be4565b90508181036020830152610ec78185610be4565b9050610ed66040830184610dd8565b949350505050565b7f4e487b7100000000000000000000000000000000000000000000000000000000600052602260045260246000fd5b60006002820490506001821680610f2557607f821691505b602082108103610f3857610f37610ede565b5b50919050565b7f4e6f7420656e6f7567682062616c616e63650000000000000000000000000000600082015250565b6000610f74601283610b98565b9150610f7f82610f3e565b602082019050919050565b60006020820190508181036000830152610fa381610f67565b9050919050565b7f4e6f7420616c6c6f776564000000000000000000000000000000000000000000600082015250565b6000610fe0600b83610b98565b9150610feb82610faa565b602082019050919050565b6000602082019050818103600083015261100f81610fd3565b9050919050565b7f496e76616c69642076616c756500000000000000000000000000000000000000600082015250565b600061104c600d83610b98565b915061105782611016565b602082019050919050565b6000602082019050818103600083015261107b8161103f565b9050919050565b7f4e487b7100000000000000000000000000000000000000000000000000000000600052601160045260246000fd5b60006110bc82610ca2565b91506110c783610ca2565b92508282039050818111156110df576110de611082565b5b92915050565b60006110f082610ca2565b91506110fb83610ca2565b925082820190508082111561111357611112611082565b5b92915050565b7f496e73756666696369656e742062616c616e6365000000000000000000000000600082015250565b600061114f601483610b98565b915061115a82611119565b602082019050919050565b6000602082019050818103600083015261117e81611142565b905091905056fea2646970667358221220d268e575f2de4a08b5e4eb17cfdd5700dd38e9e16ff742e2dac7de884ec8826a64736f6c634300081e0033",
  "linkReferences": {},
  "deployedLinkReferences": {}
}