{
  "_format": "hh-sol-artifact-1",
  "contractName": "TokenGatedDAO",
  "sourceName": "contracts/gatedDao.sol",
  "abi": [
    {
      "inputs": [
        {
          "internalType": "address",
          "name": "_roles",
          "type": "address"
        },
        {
          "internalType": "address",
          "name": "_membership",
          "type": "address"
        }
      ],
      "stateMutability": "nonpayable",
      "type": "constructor"
    },
    {
      "anonymous": false,
      "inputs": [
        {
          "indexed": false,
          "internalType": "uint256",
          "name": "id",
          "type": "uint256"
        },
        {
          "indexed": false,
          "internalType": "bool",
          "name": "passed",
          "type": "bool"
        }
      ],
      "name": "Executed",
      "type": "event"
    },
    {
      "anonymous": false,
      "inputs": [
        {
          "indexed": false,
          "internalType": "uint256",
          "name": "id",
          "type": "uint256"
        },
        {
          "indexed": false,
          "internalType": "address",
          "name": "proposer",
          "type": "address"
        },
        {
          "indexed": false,
          "internalType": "string",
          "name": "desc",
          "type": "string"
        },
        {
          "indexed": false,
          "internalType": "uint64",
          "name": "end",
          "type": "uint64"
        }
      ],
      "name": "ProposalCreated",
      "type": "event"
    },
    {
      "anonymous": false,
      "inputs": [
        {
          "indexed": false,
          "internalType": "uint256",
          "name": "id",
          "type": "uint256"
        },
        {
          "indexed": false,
          "internalType": "address",
          "name": "voter",
          "type": "address"
        },
        {
          "indexed": false,
          "internalType": "bool",
          "name": "support",
          "type": "bool"
        }
      ],
      "name": "Voted",
      "type": "event"
    },
    {
      "inputs": [],
      "name": "ROLE_PROPOSER",
      "outputs": [
        {
          "internalType": "bytes32",
          "name": "",
          "type": "bytes32"
        }
      ],
      "stateMutability": "view",
      "type": "function"
    },
    {
      "inputs": [],
      "name": "ROLE_RESOURCE",
      "outputs": [
        {
          "internalType": "bytes32",
          "name": "",
          "type": "bytes32"
        }
      ],
      "stateMutability": "view",
      "type": "function"
    },
    {
      "inputs": [],
      "name": "ROLE_VOTER",
      "outputs": [
        {
          "internalType": "bytes32",
          "name": "",
          "type": "bytes32"
        }
      ],
      "stateMutability": "view",
      "type": "function"
    },
    {
      "inputs": [],
      "name": "membership",
      "outputs": [
        {
          "internalType": "address",
          "name": "",
          "type": "address"
        }
      ],
      "stateMutability": "view",
      "type": "function"
    },
    {
      "inputs": [],
      "name": "nextProposal",
      "outputs": [
        {
          "internalType": "uint256",
          "name": "",
          "type": "uint256"
        }
      ],
      "stateMutability": "view",
      "type": "function"
    },
    {
      "inputs": [
        {
          "internalType": "uint256",
          "name": "",
          "type": "uint256"
        }
      ],
      "name": "proposals",
      "outputs": [
        {
          "internalType": "string",
          "name": "description",
          "type": "string"
        },
        {
          "internalType": "uint64",
          "name": "end",
          "type": "uint64"
        },
        {
          "internalType": "uint256",
          "name": "forVotes",
          "type": "uint256"
        },
        {
          "internalType": "uint256",
          "name": "againstVotes",
          "type": "uint256"
        },
        {
          "internalType": "bool",
          "name": "executed",
          "type": "bool"
        }
      ],
      "stateMutability": "view",
      "type": "function"
    },
    {
      "inputs": [
        {
          "internalType": "string",
          "name": "description",
          "type": "string"
        },
        {
          "internalType": "uint256",
          "name": "tokenId",
          "type": "uint256"
        }
      ],
      "name": "propose",
      "outputs": [],
      "stateMutability": "nonpayable",
      "type": "function"
    },
    {
      "inputs": [],
      "name": "roles",
      "outputs": [
        {
          "internalType": "contract IERC7432",
          "name": "",
          "type": "address"
        }
      ],
      "stateMutability": "view",
      "type": "function"
    },
    {
      "inputs": [
        {
          "internalType": "uint256",
          "name": "proposalId",
          "type": "uint256"
        },
        {
          "internalType": "bool",
          "name": "support",
          "type": "bool"
        },
        {
          "internalType": "uint256",
          "name": "tokenId",
          "type": "uint256"
        }
      ],
      "name": "vote",
      "outputs": [],
      "stateMutability": "nonpayable",
      "type": "function"
    },
    {
      "inputs": [
        {
          "internalType": "uint256",
          "name": "",
          "type": "uint256"
        },
        {
          "internalType": "address",
          "name": "",
          "type": "address"
        }
      ],
      "name": "voted",
      "outputs": [
        {
          "internalType": "bool",
          "name": "",
          "type": "bool"
        }
      ],
      "stateMutability": "view",
      "type": "function"
    }
  ],
  "bytecode": "0x608060405234801561001057600080fd5b506040516116bc3803806116bc8339818101604052810190610032919061011d565b816000806101000a81548173ffffffffffffffffffffffffffffffffffffffff021916908373ffffffffffffffffffffffffffffffffffffffff16021790555080600160006101000a81548173ffffffffffffffffffffffffffffffffffffffff021916908373ffffffffffffffffffffffffffffffffffffffff160217905550505061015d565b600080fd5b600073ffffffffffffffffffffffffffffffffffffffff82169050919050565b60006100ea826100bf565b9050919050565b6100fa816100df565b811461010557600080fd5b50565b600081519050610117816100f1565b92915050565b60008060408385031215610134576101336100ba565b5b600061014285828601610108565b925050602061015385828601610108565b9150509250929050565b6115508061016c6000396000f3fe608060405234801561001057600080fd5b506004361061009e5760003560e01c80639cbba816116100665780639cbba8161461015f578063a2bf68b91461017d578063a2efc0511461019b578063d46a5d7e146101b9578063d597089e146101d55761009e565b8063013cf08b146100a3578063392f5f64146100d75780635277b4ae146100f55780636ae3638c146101255780638d1cb8b514610143575b600080fd5b6100bd60048036038101906100b891906109d0565b6101f3565b6040516100ce959493929190610ada565b60405180910390f35b6100df6102d2565b6040516100ec9190610bb3565b60405180910390f35b61010f600480360381019061010a9190610c0c565b6102f6565b60405161011c9190610c4c565b60405180910390f35b61012d610325565b60405161013a9190610c67565b60405180910390f35b61015d60048036038101906101589190610ce7565b61032b565b005b610167610510565b6040516101749190610d60565b60405180910390f35b610185610534565b6040516101929190610d8a565b60405180910390f35b6101a361055a565b6040516101b09190610d60565b60405180910390f35b6101d360048036038101906101ce9190610dd1565b61057e565b005b6101dd6107eb565b6040516101ea9190610d60565b60405180910390f35b600360205280600052604060002060009150905080600001805461021690610e53565b80601f016020809104026020016040519081016040528092919081815260200182805461024290610e53565b801561028f5780601f106102645761010080835404028352916020019161028f565b820191906000526020600020905b81548152906001019060200180831161027257829003601f168201915b5050505050908060010160009054906101000a900467ffffffffffffffff16908060020154908060030154908060040160009054906101000a900460ff16905085565b60008054906101000a900473ffffffffffffffffffffffffffffffffffffffff1681565b60046020528160005260406000206020528060005260406000206000915091509054906101000a900460ff1681565b60025481565b61035633827fc4338366b9cfc07901c46677a3a32746bd05d5c114e4d0d293c468cff87acde061080f565b610395576040517f08c379a000000000000000000000000000000000000000000000000000000000815260040161038c90610ed0565b60405180910390fd5b60006078426103a49190610f1f565b90506040518060a0016040528085858080601f016020809104026020016040519081016040528093929190818152602001838380828437600081840152601f19601f8201169050808301925050505050505081526020018267ffffffffffffffff168152602001600081526020016000815260200160001515815250600360006002548152602001908152602001600020600082015181600001908161044a9190611124565b5060208201518160010160006101000a81548167ffffffffffffffff021916908367ffffffffffffffff160217905550604082015181600201556060820151816003015560808201518160040160006101000a81548160ff0219169083151502179055509050507f553be4d74bc63ce955614b229c8eaa4ad7f7f1f38840da15f3604b2fca49c6a8600254338686856040516104ea959493929190611232565b60405180910390a16002600081548092919061050590611280565b919050555050505050565b7f15283fd96aa656c9df35ac2fcb112678a5f24f1ca97e591a97d1d16003dbfc9c81565b600160009054906101000a900473ffffffffffffffffffffffffffffffffffffffff1681565b7fc4338366b9cfc07901c46677a3a32746bd05d5c114e4d0d293c468cff87acde081565b6105a933827f15283fd96aa656c9df35ac2fcb112678a5f24f1ca97e591a97d1d16003dbfc9c61080f565b6105e8576040517f08c379a00000000000000000000000000000000000000000000000000000000081526004016105df90611314565b60405180910390fd5b60006003600085815260200190815260200160002090508060010160009054906101000a900467ffffffffffffffff1667ffffffffffffffff164210610663576040517f08c379a000000000000000000000000000000000000000000000000000000000815260040161065a90611380565b60405180910390fd5b6004600085815260200190815260200160002060003373ffffffffffffffffffffffffffffffffffffffff1673ffffffffffffffffffffffffffffffffffffffff16815260200190815260200160002060009054906101000a900460ff1615610701576040517f08c379a00000000000000000000000000000000000000000000000000000000081526004016106f8906113ec565b60405180910390fd5b60016004600086815260200190815260200160002060003373ffffffffffffffffffffffffffffffffffffffff1673ffffffffffffffffffffffffffffffffffffffff16815260200190815260200160002060006101000a81548160ff021916908315150217905550821561078f5780600201600081548092919061078590611280565b91905055506107aa565b8060030160008154809291906107a490611280565b91905055505b7ff2913dbe661ee2acc4a046d8fbcdc792373bda34c41c6086484b5345e5785e5f8433856040516107dd9392919061140c565b60405180910390a150505050565b7fffb743871ff677192c3a3b8a20e987c20c4e07a51039934079d57be89e25a08581565b60008061081b846108eb565b905060008054906101000a900473ffffffffffffffffffffffffffffffffffffffff1673ffffffffffffffffffffffffffffffffffffffff166353f8a7ce84600160009054906101000a900473ffffffffffffffffffffffffffffffffffffffff1687858a6040518663ffffffff1660e01b81526004016108a0959493929190611443565b602060405180830381865afa1580156108bd573d6000803e3d6000fd5b505050506040513d601f19601f820116820180604052508101906108e191906114ab565b9150509392505050565b6000600160009054906101000a900473ffffffffffffffffffffffffffffffffffffffff1673ffffffffffffffffffffffffffffffffffffffff16636352211e836040518263ffffffff1660e01b81526004016109489190610c67565b602060405180830381865afa158015610965573d6000803e3d6000fd5b505050506040513d601f19601f8201168201806040525081019061098991906114ed565b9050919050565b600080fd5b600080fd5b6000819050919050565b6109ad8161099a565b81146109b857600080fd5b50565b6000813590506109ca816109a4565b92915050565b6000602082840312156109e6576109e5610990565b5b60006109f4848285016109bb565b91505092915050565b600081519050919050565b600082825260208201905092915050565b60005b83811015610a37578082015181840152602081019050610a1c565b60008484015250505050565b6000601f19601f8301169050919050565b6000610a5f826109fd565b610a698185610a08565b9350610a79818560208601610a19565b610a8281610a43565b840191505092915050565b600067ffffffffffffffff82169050919050565b610aaa81610a8d565b82525050565b610ab98161099a565b82525050565b60008115159050919050565b610ad481610abf565b82525050565b600060a0820190508181036000830152610af48188610a54565b9050610b036020830187610aa1565b610b106040830186610ab0565b610b1d6060830185610ab0565b610b2a6080830184610acb565b9695505050505050565b600073ffffffffffffffffffffffffffffffffffffffff82169050919050565b6000819050919050565b6000610b79610b74610b6f84610b34565b610b54565b610b34565b9050919050565b6000610b8b82610b5e565b9050919050565b6000610b9d82610b80565b9050919050565b610bad81610b92565b82525050565b6000602082019050610bc86000830184610ba4565b92915050565b6000610bd982610b34565b9050919050565b610be981610bce565b8114610bf457600080fd5b50565b600081359050610c0681610be0565b92915050565b60008060408385031215610c2357610c22610990565b5b6000610c31858286016109bb565b9250506020610c4285828601610bf7565b9150509250929050565b6000602082019050610c616000830184610acb565b92915050565b6000602082019050610c7c6000830184610ab0565b92915050565b600080fd5b600080fd5b600080fd5b60008083601f840112610ca757610ca6610c82565b5b8235905067ffffffffffffffff811115610cc457610cc3610c87565b5b602083019150836001820283011115610ce057610cdf610c8c565b5b9250929050565b600080600060408486031215610d0057610cff610990565b5b600084013567ffffffffffffffff811115610d1e57610d1d610995565b5b610d2a86828701610c91565b93509350506020610d3d868287016109bb565b9150509250925092565b6000819050919050565b610d5a81610d47565b82525050565b6000602082019050610d756000830184610d51565b92915050565b610d8481610bce565b82525050565b6000602082019050610d9f6000830184610d7b565b92915050565b610dae81610abf565b8114610db957600080fd5b50565b600081359050610dcb81610da5565b92915050565b600080600060608486031215610dea57610de9610990565b5b6000610df8868287016109bb565b9350506020610e0986828701610dbc565b9250506040610e1a868287016109bb565b9150509250925092565b7f4e487b7100000000000000000000000000000000000000000000000000000000600052602260045260246000fd5b60006002820490506001821680610e6b57607f821691505b602082108103610e7e57610e7d610e24565b5b50919050565b7f6e6565642070726f706f73657220726f6c65206f6e20746f6b656e4964000000600082015250565b6000610eba601d83610a08565b9150610ec582610e84565b602082019050919050565b60006020820190508181036000830152610ee981610ead565b9050919050565b7f4e487b7100000000000000000000000000000000000000000000000000000000600052601160045260246000fd5b6000610f2a8261099a565b9150610f358361099a565b9250828201905080821115610f4d57610f4c610ef0565b5b92915050565b7f4e487b7100000000000000000000000000000000000000000000000000000000600052604160045260246000fd5b60008190508160005260206000209050919050565b60006020601f8301049050919050565b600082821b905092915050565b600060088302610fe47fffffffffffffffffffffffffffffffffffffffffffffffffffffffffffffffff82610fa7565b610fee8683610fa7565b95508019841693508086168417925050509392505050565b600061102161101c6110178461099a565b610b54565b61099a565b9050919050565b6000819050919050565b61103b83611006565b61104f61104782611028565b848454610fb4565b825550505050565b600090565b611064611057565b61106f818484611032565b505050565b5b818110156110935761108860008261105c565b600181019050611075565b5050565b601f8211156110d8576110a981610f82565b6110b284610f97565b810160208510156110c1578190505b6110d56110cd85610f97565b830182611074565b50505b505050565b600082821c905092915050565b60006110fb600019846008026110dd565b1980831691505092915050565b600061111483836110ea565b9150826002028217905092915050565b61112d826109fd565b67ffffffffffffffff81111561114657611145610f53565b5b6111508254610e53565b61115b828285611097565b600060209050601f83116001811461118e576000841561117c578287015190505b6111868582611108565b8655506111ee565b601f19841661119c86610f82565b60005b828110156111c45784890151825560018201915060208501945060208101905061119f565b868310156111e157848901516111dd601f8916826110ea565b8355505b6001600288020188555050505b505050505050565b82818337600083830152505050565b60006112118385610a08565b935061121e8385846111f6565b61122783610a43565b840190509392505050565b60006080820190506112476000830188610ab0565b6112546020830187610d7b565b8181036040830152611267818587611205565b90506112766060830184610aa1565b9695505050505050565b600061128b8261099a565b91507fffffffffffffffffffffffffffffffffffffffffffffffffffffffffffffffff82036112bd576112bc610ef0565b5b600182019050919050565b7f6e65656420766f74657220726f6c650000000000000000000000000000000000600082015250565b60006112fe600f83610a08565b9150611309826112c8565b602082019050919050565b6000602082019050818103600083015261132d816112f1565b9050919050565b7f766f74696e6720636c6f73656400000000000000000000000000000000000000600082015250565b600061136a600d83610a08565b915061137582611334565b602082019050919050565b600060208201905081810360008301526113998161135d565b9050919050565b7f616c726561647920766f74656400000000000000000000000000000000000000600082015250565b60006113d6600d83610a08565b91506113e1826113a0565b602082019050919050565b60006020820190508181036000830152611405816113c9565b9050919050565b60006060820190506114216000830186610ab0565b61142e6020830185610d7b565b61143b6040830184610acb565b949350505050565b600060a0820190506114586000830188610d51565b6114656020830187610d7b565b6114726040830186610ab0565b61147f6060830185610d7b565b61148c6080830184610d7b565b9695505050505050565b6000815190506114a581610da5565b92915050565b6000602082840312156114c1576114c0610990565b5b60006114cf84828501611496565b91505092915050565b6000815190506114e781610be0565b92915050565b60006020828403121561150357611502610990565b5b6000611511848285016114d8565b9150509291505056fea26469706673582212200cdc0899cc039cd4b8be212c56c8d632d37987c0bef4bd6dbf08ecc396522ebb64736f6c634300081e0033",
  "linkReferences": {},
  "deployedLinkReferences": {}
}