{
  "_format": "hh-sol-artifact-1",
  "contractName": "SimpleERC7432",
  "sourceName": "contracts/ERC7432Role.sol",
  "abi": [
    {
      "anonymous": false,
      "inputs": [
        {
          "indexed": true,
          "internalType": "bytes32",
          "name": "_role",
          "type": "bytes32"
        },
        {
          "indexed": true,
          "internalType": "address",
          "name": "_tokenAddress",
          "type": "address"
        },
        {
          "indexed": true,
          "internalType": "uint256",
          "name": "_tokenId",
          "type": "uint256"
        },
        {
          "indexed": false,
          "internalType": "address",
          "name": "_grantee",
          "type": "address"
        },
        {
          "indexed": false,
          "internalType": "uint64",
          "name": "_expirationDate",
          "type": "uint64"
        },
        {
          "indexed": false,
          "internalType": "bytes",
          "name": "_data",
          "type": "bytes"
        }
      ],
      "name": "RoleGranted",
      "type": "event"
    },
    {
      "anonymous": false,
      "inputs": [
        {
          "indexed": true,
          "internalType": "bytes32",
          "name": "_role",
          "type": "bytes32"
        },
        {
          "indexed": true,
          "internalType": "address",
          "name": "_tokenAddress",
          "type": "address"
        },
        {
          "indexed": true,
          "internalType": "uint256",
          "name": "_tokenId",
          "type": "uint256"
        },
        {
          "indexed": false,
          "internalType": "address",
          "name": "_grantee",
          "type": "address"
        }
      ],
      "name": "RoleRevoked",
      "type": "event"
    },
    {
      "inputs": [
        {
          "internalType": "bytes32",
          "name": "_role",
          "type": "bytes32"
        },
        {
          "internalType": "address",
          "name": "_tokenAddress",
          "type": "address"
        },
        {
          "internalType": "uint256",
          "name": "_tokenId",
          "type": "uint256"
        },
        {
          "internalType": "address",
          "name": "_grantee",
          "type": "address"
        },
        {
          "internalType": "uint64",
          "name": "_expirationDate",
          "type": "uint64"
        },
        {
          "internalType": "bytes",
          "name": "_data",
          "type": "bytes"
        }
      ],
      "name": "grantRole",
      "outputs": [],
      "stateMutability": "nonpayable",
      "type": "function"
    },
    {
      "inputs": [
        {
          "internalType": "bytes32",
          "name": "_role",
          "type": "bytes32"
        },
        {
          "internalType": "address",
          "name": "_tokenAddress",
          "type": "address"
        },
        {
          "internalType": "uint256",
          "name": "_tokenId",
          "type": "uint256"
        },
        {
          "internalType": "address",
          "name": "_grantor",
          "type": "address"
        },
        {
          "internalType": "address",
          "name": "_grantee",
          "type": "address"
        }
      ],
      "name": "hasRole",
      "outputs": [
        {
          "internalType": "bool",
          "name": "",
          "type": "bool"
        }
      ],
      "stateMutability": "view",
      "type": "function"
    },
    {
      "inputs": [
        {
          "internalType": "bytes32",
          "name": "_role",
          "type": "bytes32"
        },
        {
          "internalType": "address",
          "name": "_tokenAddress",
          "type": "address"
        },
        {
          "internalType": "uint256",
          "name": "_tokenId",
          "type": "uint256"
        },
        {
          "internalType": "address",
          "name": "_grantor",
          "type": "address"
        },
        {
          "internalType": "address",
          "name": "_grantee",
          "type": "address"
        }
      ],
      "name": "hasUniqueRole",
      "outputs": [
        {
          "internalType": "bool",
          "name": "",
          "type": "bool"
        }
      ],
      "stateMutability": "view",
      "type": "function"
    },
    {
      "inputs": [
        {
          "internalType": "bytes32",
          "name": "_role",
          "type": "bytes32"
        },
        {
          "internalType": "address",
          "name": "_tokenAddress",
          "type": "address"
        },
        {
          "internalType": "uint256",
          "name": "_tokenId",
          "type": "uint256"
        },
        {
          "internalType": "address",
          "name": "_grantee",
          "type": "address"
        }
      ],
      "name": "revokeRole",
      "outputs": [],
      "stateMutability": "nonpayable",
      "type": "function"
    },
    {
      "inputs": [
        {
          "internalType": "bytes32",
          "name": "_role",
          "type": "bytes32"
        },
        {
          "internalType": "address",
          "name": "_tokenAddress",
          "type": "address"
        },
        {
          "internalType": "uint256",
          "name": "_tokenId",
          "type": "uint256"
        },
        {
          "internalType": "address",
          "name": "_grantor",
          "type": "address"
        },
        {
          "internalType": "address",
          "name": "_grantee",
          "type": "address"
        }
      ],
      "name": "roleData",
      "outputs": [
        {
          "internalType": "bytes",
          "name": "data_",
          "type": "bytes"
        }
      ],
      "stateMutability": "view",
      "type": "function"
    },
    {
      "inputs": [
        {
          "internalType": "bytes32",
          "name": "_role",
          "type": "bytes32"
        },
        {
          "internalType": "address",
          "name": "_tokenAddress",
          "type": "address"
        },
        {
          "internalType": "uint256",
          "name": "_tokenId",
          "type": "uint256"
        },
        {
          "internalType": "address",
          "name": "_grantor",
          "type": "address"
        },
        {
          "internalType": "address",
          "name": "_grantee",
          "type": "address"
        }
      ],
      "name": "roleExpirationDate",
      "outputs": [
        {
          "internalType": "uint64",
          "name": "expirationDate_",
          "type": "uint64"
        }
      ],
      "stateMutability": "view",
      "type": "function"
    },
    {
      "inputs": [
        {
          "internalType": "address",
          "name": "",
          "type": "address"
        },
        {
          "internalType": "address",
          "name": "",
          "type": "address"
        },
        {
          "internalType": "address",
          "name": "",
          "type": "address"
        },
        {
          "internalType": "uint256",
          "name": "",
          "type": "uint256"
        },
        {
          "internalType": "bytes32",
          "name": "",
          "type": "bytes32"
        }
      ],
      "name": "roles",
      "outputs": [
        {
          "internalType": "uint64",
          "name": "expirationDate",
          "type": "uint64"
        },
        {
          "internalType": "bytes",
          "name": "data",
          "type": "bytes"
        }
      ],
      "stateMutability": "view",
      "type": "function"
    },
    {
      "inputs": [
        {
          "internalType": "bytes4",
          "name": "interfaceId",
          "type": "bytes4"
        }
      ],
      "name": "supportsInterface",
      "outputs": [
        {
          "internalType": "bool",
          "name": "",
          "type": "bool"
        }
      ],
      "stateMutability": "pure",
      "type": "function"
    }
  ],
  "bytecode": "0x6080604052348015600f57600080fd5b506115698061001f6000396000f3fe608060405234801561001057600080fd5b50600436106100885760003560e01c806351fe12971161005b57806351fe12971461014d57806353f8a7ce14610169578063ce0a5eeb14610199578063ea964d69146101ca57610088565b806301ffc9a71461008d5780630f1df007146100bd578063177cc00a146100ed5780631e3337c61461011d575b600080fd5b6100a760048036038101906100a29190610c19565b6101e6565b6040516100b49190610c61565b60405180910390f35b6100d760048036038101906100d29190610d46565b610250565b6040516100e49190610de4565b60405180910390f35b61010760048036038101906101029190610d46565b61034f565b6040516101149190610c61565b60405180910390f35b61013760048036038101906101329190610d46565b61045a565b6040516101449190610e8f565b60405180910390f35b61016760048036038101906101629190610f42565b6105cd565b005b610183600480360381019061017e9190610d46565b6107fd565b6040516101909190610c61565b60405180910390f35b6101b360048036038101906101ae9190610ff1565b610908565b6040516101c192919061106c565b60405180910390f35b6101e460048036038101906101df919061109c565b6109fc565b005b60007feec2fffb000000000000000000000000000000000000000000000000000000007bffffffffffffffffffffffffffffffffffffffffffffffffffffffff1916827bffffffffffffffffffffffffffffffffffffffffffffffffffffffff1916149050919050565b60008060008473ffffffffffffffffffffffffffffffffffffffff1673ffffffffffffffffffffffffffffffffffffffff16815260200190815260200160002060008373ffffffffffffffffffffffffffffffffffffffff1673ffffffffffffffffffffffffffffffffffffffff16815260200190815260200160002060008673ffffffffffffffffffffffffffffffffffffffff1673ffffffffffffffffffffffffffffffffffffffff1681526020019081526020016000206000858152602001908152602001600020600087815260200190815260200160002060000160009054906101000a900467ffffffffffffffff16905095945050505050565b6000426000808573ffffffffffffffffffffffffffffffffffffffff1673ffffffffffffffffffffffffffffffffffffffff16815260200190815260200160002060008473ffffffffffffffffffffffffffffffffffffffff1673ffffffffffffffffffffffffffffffffffffffff16815260200190815260200160002060008773ffffffffffffffffffffffffffffffffffffffff1673ffffffffffffffffffffffffffffffffffffffff1681526020019081526020016000206000868152602001908152602001600020600088815260200190815260200160002060000160009054906101000a900467ffffffffffffffff1667ffffffffffffffff1611905095945050505050565b60606000808473ffffffffffffffffffffffffffffffffffffffff1673ffffffffffffffffffffffffffffffffffffffff16815260200190815260200160002060008373ffffffffffffffffffffffffffffffffffffffff1673ffffffffffffffffffffffffffffffffffffffff16815260200190815260200160002060008673ffffffffffffffffffffffffffffffffffffffff1673ffffffffffffffffffffffffffffffffffffffff16815260200190815260200160002060008581526020019081526020016000206000878152602001908152602001600020600101805461054490611132565b80601f016020809104026020016040519081016040528092919081815260200182805461057090611132565b80156105bd5780601f10610592576101008083540402835291602001916105bd565b820191906000526020600020905b8154815290600101906020018083116105a057829003601f168201915b5050505050905095945050505050565b428367ffffffffffffffff1611610619576040517f08c379a0000000000000000000000000000000000000000000000000000000008152600401610610906111c0565b60405180910390fd5b60405180604001604052808467ffffffffffffffff16815260200183838080601f016020809104026020016040519081016040528093929190818152602001838380828437600081840152601f19601f820116905080830192505050505050508152506000803373ffffffffffffffffffffffffffffffffffffffff1673ffffffffffffffffffffffffffffffffffffffff16815260200190815260200160002060008673ffffffffffffffffffffffffffffffffffffffff1673ffffffffffffffffffffffffffffffffffffffff16815260200190815260200160002060008873ffffffffffffffffffffffffffffffffffffffff1673ffffffffffffffffffffffffffffffffffffffff1681526020019081526020016000206000878152602001908152602001600020600089815260200190815260200160002060008201518160000160006101000a81548167ffffffffffffffff021916908367ffffffffffffffff160217905550602082015181600101908161079a91906113bb565b50905050848673ffffffffffffffffffffffffffffffffffffffff16887ffb395811eb1d9dc0da2c1809c293c669533bc1c467942dee678223721ddd6e80878787876040516107ec94939291906114d8565b60405180910390a450505050505050565b6000426000808573ffffffffffffffffffffffffffffffffffffffff1673ffffffffffffffffffffffffffffffffffffffff16815260200190815260200160002060008473ffffffffffffffffffffffffffffffffffffffff1673ffffffffffffffffffffffffffffffffffffffff16815260200190815260200160002060008773ffffffffffffffffffffffffffffffffffffffff1673ffffffffffffffffffffffffffffffffffffffff1681526020019081526020016000206000868152602001908152602001600020600088815260200190815260200160002060000160009054906101000a900467ffffffffffffffff1667ffffffffffffffff1611905095945050505050565b6000602052846000526040600020602052836000526040600020602052826000526040600020602052816000526040600020602052806000526040600020600094509450505050508060000160009054906101000a900467ffffffffffffffff169080600101805461097990611132565b80601f01602080910402602001604051908101604052809291908181526020018280546109a590611132565b80156109f25780601f106109c7576101008083540402835291602001916109f2565b820191906000526020600020905b8154815290600101906020018083116109d557829003601f168201915b5050505050905082565b6000803373ffffffffffffffffffffffffffffffffffffffff1673ffffffffffffffffffffffffffffffffffffffff16815260200190815260200160002060008273ffffffffffffffffffffffffffffffffffffffff1673ffffffffffffffffffffffffffffffffffffffff16815260200190815260200160002060008473ffffffffffffffffffffffffffffffffffffffff1673ffffffffffffffffffffffffffffffffffffffff16815260200190815260200160002060008381526020019081526020016000206000858152602001908152602001600020600080820160006101000a81549067ffffffffffffffff0219169055600182016000610b029190610b5a565b5050818373ffffffffffffffffffffffffffffffffffffffff16857f5879a62074ca3b500072f4b89581095c76682211b05e71c5d1d1a2f65abc6a7f84604051610b4c9190611518565b60405180910390a450505050565b508054610b6690611132565b6000825580601f10610b785750610b97565b601f016020900490600052602060002090810190610b969190610b9a565b5b50565b5b80821115610bb3576000816000905550600101610b9b565b5090565b600080fd5b600080fd5b60007fffffffff0000000000000000000000000000000000000000000000000000000082169050919050565b610bf681610bc1565b8114610c0157600080fd5b50565b600081359050610c1381610bed565b92915050565b600060208284031215610c2f57610c2e610bb7565b5b6000610c3d84828501610c04565b91505092915050565b60008115159050919050565b610c5b81610c46565b82525050565b6000602082019050610c766000830184610c52565b92915050565b6000819050919050565b610c8f81610c7c565b8114610c9a57600080fd5b50565b600081359050610cac81610c86565b92915050565b600073ffffffffffffffffffffffffffffffffffffffff82169050919050565b6000610cdd82610cb2565b9050919050565b610ced81610cd2565b8114610cf857600080fd5b50565b600081359050610d0a81610ce4565b92915050565b6000819050919050565b610d2381610d10565b8114610d2e57600080fd5b50565b600081359050610d4081610d1a565b92915050565b600080600080600060a08688031215610d6257610d61610bb7565b5b6000610d7088828901610c9d565b9550506020610d8188828901610cfb565b9450506040610d9288828901610d31565b9350506060610da388828901610cfb565b9250506080610db488828901610cfb565b9150509295509295909350565b600067ffffffffffffffff82169050919050565b610dde81610dc1565b82525050565b6000602082019050610df96000830184610dd5565b92915050565b600081519050919050565b600082825260208201905092915050565b60005b83811015610e39578082015181840152602081019050610e1e565b60008484015250505050565b6000601f19601f8301169050919050565b6000610e6182610dff565b610e6b8185610e0a565b9350610e7b818560208601610e1b565b610e8481610e45565b840191505092915050565b60006020820190508181036000830152610ea98184610e56565b905092915050565b610eba81610dc1565b8114610ec557600080fd5b50565b600081359050610ed781610eb1565b92915050565b600080fd5b600080fd5b600080fd5b60008083601f840112610f0257610f01610edd565b5b8235905067ffffffffffffffff811115610f1f57610f1e610ee2565b5b602083019150836001820283011115610f3b57610f3a610ee7565b5b9250929050565b600080600080600080600060c0888a031215610f6157610f60610bb7565b5b6000610f6f8a828b01610c9d565b9750506020610f808a828b01610cfb565b9650506040610f918a828b01610d31565b9550506060610fa28a828b01610cfb565b9450506080610fb38a828b01610ec8565b93505060a088013567ffffffffffffffff811115610fd457610fd3610bbc565b5b610fe08a828b01610eec565b925092505092959891949750929550565b600080600080600060a0868803121561100d5761100c610bb7565b5b600061101b88828901610cfb565b955050602061102c88828901610cfb565b945050604061103d88828901610cfb565b935050606061104e88828901610d31565b925050608061105f88828901610c9d565b9150509295509295909350565b60006040820190506110816000830185610dd5565b81810360208301526110938184610e56565b90509392505050565b600080600080608085870312156110b6576110b5610bb7565b5b60006110c487828801610c9d565b94505060206110d587828801610cfb565b93505060406110e687828801610d31565b92505060606110f787828801610cfb565b91505092959194509250565b7f4e487b7100000000000000000000000000000000000000000000000000000000600052602260045260246000fd5b6000600282049050600182168061114a57607f821691505b60208210810361115d5761115c611103565b5b50919050565b600082825260208201905092915050565b7f45787069726174696f6e206d75737420626520696e2074686520667574757265600082015250565b60006111aa602083611163565b91506111b582611174565b602082019050919050565b600060208201905081810360008301526111d98161119d565b9050919050565b7f4e487b7100000000000000000000000000000000000000000000000000000000600052604160045260246000fd5b60008190508160005260206000209050919050565b60006020601f8301049050919050565b600082821b905092915050565b6000600883026112717fffffffffffffffffffffffffffffffffffffffffffffffffffffffffffffffff82611234565b61127b8683611234565b95508019841693508086168417925050509392505050565b6000819050919050565b60006112b86112b36112ae84610d10565b611293565b610d10565b9050919050565b6000819050919050565b6112d28361129d565b6112e66112de826112bf565b848454611241565b825550505050565b600090565b6112fb6112ee565b6113068184846112c9565b505050565b5b8181101561132a5761131f6000826112f3565b60018101905061130c565b5050565b601f82111561136f576113408161120f565b61134984611224565b81016020851015611358578190505b61136c61136485611224565b83018261130b565b50505b505050565b600082821c905092915050565b600061139260001984600802611374565b1980831691505092915050565b60006113ab8383611381565b9150826002028217905092915050565b6113c482610dff565b67ffffffffffffffff8111156113dd576113dc6111e0565b5b6113e78254611132565b6113f282828561132e565b600060209050601f8311600181146114255760008415611413578287015190505b61141d858261139f565b865550611485565b601f1984166114338661120f565b60005b8281101561145b57848901518255600182019150602085019450602081019050611436565b868310156114785784890151611474601f891682611381565b8355505b6001600288020188555050505b505050505050565b61149681610cd2565b82525050565b82818337600083830152505050565b60006114b78385610e0a565b93506114c483858461149c565b6114cd83610e45565b840190509392505050565b60006060820190506114ed600083018761148d565b6114fa6020830186610dd5565b818103604083015261150d8184866114ab565b905095945050505050565b600060208201905061152d600083018461148d565b9291505056fea2646970667358221220925ee06ba3562be09f5fb52d3dae4d610bf28244d95fa29d56bf7f054c285b9264736f6c634300081e0033",
  "linkReferences": {},
  "deployedLinkReferences": {}
}