{
  "_format": "hh-sol-artifact-1",
  "contractName": "GatedDAO",
  "sourceName": "contracts/gatedDao.sol",
  "abi": [
    {
      "inputs": [
        {
          "internalType": "address",
          "name": "_roleContract",
          "type": "address"
        },
        {
          "internalType": "address",
          "name": "_membershipNFT",
          "type": "address"
        }
      ],
      "stateMutability": "nonpayable",
      "type": "constructor"
    },
    {
      "inputs": [],
      "name": "VOTER_ROLE",
      "outputs": [
        {
          "internalType": "bytes32",
          "name": "",
          "type": "bytes32"
        }
      ],
      "stateMutability": "view",
      "type": "function"
    },
    {
      "inputs": [
        {
          "internalType": "string",
          "name": "description",
          "type": "string"
        },
        {
          "internalType": "uint256",
          "name": "tokenId",
          "type": "uint256"
        }
      ],
      "name": "createProposal",
      "outputs": [],
      "stateMutability": "nonpayable",
      "type": "function"
    },
    {
      "inputs": [],
      "name": "getProposals",
      "outputs": [
        {
          "internalType": "string[]",
          "name": "",
          "type": "string[]"
        }
      ],
      "stateMutability": "view",
      "type": "function"
    },
    {
      "inputs": [
        {
          "internalType": "address",
          "name": "to",
          "type": "address"
        }
      ],
      "name": "initializeMembership",
      "outputs": [],
      "stateMutability": "nonpayable",
      "type": "function"
    },
    {
      "inputs": [],
      "name": "membershipNFT",
      "outputs": [
        {
          "internalType": "address",
          "name": "",
          "type": "address"
        }
      ],
      "stateMutability": "view",
      "type": "function"
    },
    {
      "inputs": [
        {
          "internalType": "uint256",
          "name": "",
          "type": "uint256"
        }
      ],
      "name": "proposals",
      "outputs": [
        {
          "internalType": "string",
          "name": "",
          "type": "string"
        }
      ],
      "stateMutability": "view",
      "type": "function"
    },
    {
      "inputs": [],
      "name": "roleContract",
      "outputs": [
        {
          "internalType": "contract IERC7432",
          "name": "",
          "type": "address"
        }
      ],
      "stateMutability": "view",
      "type": "function"
    },
    {
      "inputs": [
        {
          "internalType": "uint256",
          "name": "proposalId",
          "type": "uint256"
        },
        {
          "internalType": "uint256",
          "name": "tokenId",
          "type": "uint256"
        }
      ],
      "name": "vote",
      "outputs": [],
      "stateMutability": "nonpayable",
      "type": "function"
    },
    {
      "inputs": [
        {
          "internalType": "uint256",
          "name": "",
          "type": "uint256"
        }
      ],
      "name": "votes",
      "outputs": [
        {
          "internalType": "uint256",
          "name": "",
          "type": "uint256"
        }
      ],
      "stateMutability": "view",
      "type": "function"
    }
  ],
  "bytecode": "0x608060405234801561001057600080fd5b506040516113e03803806113e08339818101604052810190610032919061011d565b816000806101000a81548173ffffffffffffffffffffffffffffffffffffffff021916908373ffffffffffffffffffffffffffffffffffffffff16021790555080600160006101000a81548173ffffffffffffffffffffffffffffffffffffffff021916908373ffffffffffffffffffffffffffffffffffffffff160217905550505061015d565b600080fd5b600073ffffffffffffffffffffffffffffffffffffffff82169050919050565b60006100ea826100bf565b9050919050565b6100fa816100df565b811461010557600080fd5b50565b600081519050610117816100f1565b92915050565b60008060408385031215610134576101336100ba565b5b600061014285828601610108565b925050602061015385828601610108565b9150509250929050565b6112748061016c6000396000f3fe608060405234801561001057600080fd5b50600436106100935760003560e01c8063985d0b1e11610066578063985d0b1e14610132578063a94015c814610150578063b384abef1461016e578063cbd023e01461018a578063f89723b8146101a657610093565b8063013cf08b1461009857806335facf78146100c85780635df81330146100e457806362564c4814610114575b600080fd5b6100b260048036038101906100ad91906107e6565b6101c4565b6040516100bf91906108a3565b60405180910390f35b6100e260048036038101906100dd91906109fa565b610270565b005b6100fe60048036038101906100f991906107e6565b6103f0565b60405161010b9190610a65565b60405180910390f35b61011c610408565b6040516101299190610b8c565b60405180910390f35b61013a6104e1565b6040516101479190610bef565b60405180910390f35b610158610507565b6040516101659190610c23565b60405180910390f35b61018860048036038101906101839190610c3e565b61052b565b005b6101a4600480360381019061019f9190610caa565b6106e8565b005b6101ae610778565b6040516101bb9190610d36565b60405180910390f35b600281815481106101d457600080fd5b9060005260206000200160009150905080546101ef90610d80565b80601f016020809104026020016040519081016040528092919081815260200182805461021b90610d80565b80156102685780601f1061023d57610100808354040283529160200191610268565b820191906000526020600020905b81548152906001019060200180831161024b57829003601f168201915b505050505081565b8060008054906101000a900473ffffffffffffffffffffffffffffffffffffffff1673ffffffffffffffffffffffffffffffffffffffff166353f8a7ce7f15283fd96aa656c9df35ac2fcb112678a5f24f1ca97e591a97d1d16003dbfc9c600160009054906101000a900473ffffffffffffffffffffffffffffffffffffffff1684600160009054906101000a900473ffffffffffffffffffffffffffffffffffffffff16336040518663ffffffff1660e01b8152600401610336959493929190610db1565b602060405180830381865afa158015610353573d6000803e3d6000fd5b505050506040513d601f19601f820116820180604052508101906103779190610e3c565b6103b6576040517f08c379a00000000000000000000000000000000000000000000000000000000081526004016103ad90610edb565b60405180910390fd5b6002839080600181540180825580915050600190039060005260206000200160009091909190915090816103ea919061109d565b50505050565b60036020528060005260406000206000915090505481565b60606002805480602002602001604051908101604052809291908181526020016000905b828210156104d857838290600052602060002001805461044b90610d80565b80601f016020809104026020016040519081016040528092919081815260200182805461047790610d80565b80156104c45780601f10610499576101008083540402835291602001916104c4565b820191906000526020600020905b8154815290600101906020018083116104a757829003601f168201915b50505050508152602001906001019061042c565b50505050905090565b600160009054906101000a900473ffffffffffffffffffffffffffffffffffffffff1681565b7f15283fd96aa656c9df35ac2fcb112678a5f24f1ca97e591a97d1d16003dbfc9c81565b8060008054906101000a900473ffffffffffffffffffffffffffffffffffffffff1673ffffffffffffffffffffffffffffffffffffffff166353f8a7ce7f15283fd96aa656c9df35ac2fcb112678a5f24f1ca97e591a97d1d16003dbfc9c600160009054906101000a900473ffffffffffffffffffffffffffffffffffffffff1684600160009054906101000a900473ffffffffffffffffffffffffffffffffffffffff16336040518663ffffffff1660e01b81526004016105f1959493929190610db1565b602060405180830381865afa15801561060e573d6000803e3d6000fd5b505050506040513d601f19601f820116820180604052508101906106329190610e3c565b610671576040517f08c379a000000000000000000000000000000000000000000000000000000000815260040161066890610edb565b60405180910390fd5b60028054905083106106b8576040517f08c379a00000000000000000000000000000000000000000000000000000000081526004016106af906111bb565b60405180910390fd5b60016003600085815260200190815260200160002060008282546106dc919061120a565b92505081905550505050565b600160009054906101000a900473ffffffffffffffffffffffffffffffffffffffff1673ffffffffffffffffffffffffffffffffffffffff16636a627842826040518263ffffffff1660e01b81526004016107439190610bef565b600060405180830381600087803b15801561075d57600080fd5b505af1158015610771573d6000803e3d6000fd5b5050505050565b60008054906101000a900473ffffffffffffffffffffffffffffffffffffffff1681565b6000604051905090565b600080fd5b600080fd5b6000819050919050565b6107c3816107b0565b81146107ce57600080fd5b50565b6000813590506107e0816107ba565b92915050565b6000602082840312156107fc576107fb6107a6565b5b600061080a848285016107d1565b91505092915050565b600081519050919050565b600082825260208201905092915050565b60005b8381101561084d578082015181840152602081019050610832565b60008484015250505050565b6000601f19601f8301169050919050565b600061087582610813565b61087f818561081e565b935061088f81856020860161082f565b61089881610859565b840191505092915050565b600060208201905081810360008301526108bd818461086a565b905092915050565b600080fd5b600080fd5b7f4e487b7100000000000000000000000000000000000000000000000000000000600052604160045260246000fd5b61090782610859565b810181811067ffffffffffffffff82111715610926576109256108cf565b5b80604052505050565b600061093961079c565b905061094582826108fe565b919050565b600067ffffffffffffffff821115610965576109646108cf565b5b61096e82610859565b9050602081019050919050565b82818337600083830152505050565b600061099d6109988461094a565b61092f565b9050828152602081018484840111156109b9576109b86108ca565b5b6109c484828561097b565b509392505050565b600082601f8301126109e1576109e06108c5565b5b81356109f184826020860161098a565b91505092915050565b60008060408385031215610a1157610a106107a6565b5b600083013567ffffffffffffffff811115610a2f57610a2e6107ab565b5b610a3b858286016109cc565b9250506020610a4c858286016107d1565b9150509250929050565b610a5f816107b0565b82525050565b6000602082019050610a7a6000830184610a56565b92915050565b600081519050919050565b600082825260208201905092915050565b6000819050602082019050919050565b600082825260208201905092915050565b6000610ac882610813565b610ad28185610aac565b9350610ae281856020860161082f565b610aeb81610859565b840191505092915050565b6000610b028383610abd565b905092915050565b6000602082019050919050565b6000610b2282610a80565b610b2c8185610a8b565b935083602082028501610b3e85610a9c565b8060005b85811015610b7a5784840389528151610b5b8582610af6565b9450610b6683610b0a565b925060208a01995050600181019050610b42565b50829750879550505050505092915050565b60006020820190508181036000830152610ba68184610b17565b905092915050565b600073ffffffffffffffffffffffffffffffffffffffff82169050919050565b6000610bd982610bae565b9050919050565b610be981610bce565b82525050565b6000602082019050610c046000830184610be0565b92915050565b6000819050919050565b610c1d81610c0a565b82525050565b6000602082019050610c386000830184610c14565b92915050565b60008060408385031215610c5557610c546107a6565b5b6000610c63858286016107d1565b9250506020610c74858286016107d1565b9150509250929050565b610c8781610bce565b8114610c9257600080fd5b50565b600081359050610ca481610c7e565b92915050565b600060208284031215610cc057610cbf6107a6565b5b6000610cce84828501610c95565b91505092915050565b6000819050919050565b6000610cfc610cf7610cf284610bae565b610cd7565b610bae565b9050919050565b6000610d0e82610ce1565b9050919050565b6000610d2082610d03565b9050919050565b610d3081610d15565b82525050565b6000602082019050610d4b6000830184610d27565b92915050565b7f4e487b7100000000000000000000000000000000000000000000000000000000600052602260045260246000fd5b60006002820490506001821680610d9857607f821691505b602082108103610dab57610daa610d51565b5b50919050565b600060a082019050610dc66000830188610c14565b610dd36020830187610be0565b610de06040830186610a56565b610ded6060830185610be0565b610dfa6080830184610be0565b9695505050505050565b60008115159050919050565b610e1981610e04565b8114610e2457600080fd5b50565b600081519050610e3681610e10565b92915050565b600060208284031215610e5257610e516107a6565b5b6000610e6084828501610e27565b91505092915050565b7f4e6f7420617574686f72697a65643a204d697373696e6720766f74657220726f60008201527f6c65000000000000000000000000000000000000000000000000000000000000602082015250565b6000610ec560228361081e565b9150610ed082610e69565b604082019050919050565b60006020820190508181036000830152610ef481610eb8565b9050919050565b60008190508160005260206000209050919050565b60006020601f8301049050919050565b600082821b905092915050565b600060088302610f5d7fffffffffffffffffffffffffffffffffffffffffffffffffffffffffffffffff82610f20565b610f678683610f20565b95508019841693508086168417925050509392505050565b6000610f9a610f95610f90846107b0565b610cd7565b6107b0565b9050919050565b6000819050919050565b610fb483610f7f565b610fc8610fc082610fa1565b848454610f2d565b825550505050565b600090565b610fdd610fd0565b610fe8818484610fab565b505050565b5b8181101561100c57611001600082610fd5565b600181019050610fee565b5050565b601f8211156110515761102281610efb565b61102b84610f10565b8101602085101561103a578190505b61104e61104685610f10565b830182610fed565b50505b505050565b600082821c905092915050565b600061107460001984600802611056565b1980831691505092915050565b600061108d8383611063565b9150826002028217905092915050565b6110a682610813565b67ffffffffffffffff8111156110bf576110be6108cf565b5b6110c98254610d80565b6110d4828285611010565b600060209050601f83116001811461110757600084156110f5578287015190505b6110ff8582611081565b865550611167565b601f19841661111586610efb565b60005b8281101561113d57848901518255600182019150602085019450602081019050611118565b8683101561115a5784890151611156601f891682611063565b8355505b6001600288020188555050505b505050505050565b7f496e76616c69642070726f706f73616c00000000000000000000000000000000600082015250565b60006111a560108361081e565b91506111b08261116f565b602082019050919050565b600060208201905081810360008301526111d481611198565b9050919050565b7f4e487b7100000000000000000000000000000000000000000000000000000000600052601160045260246000fd5b6000611215826107b0565b9150611220836107b0565b9250828201905080821115611238576112376111db565b5b9291505056fea26469706673582212204c9501daeb4c0dab0e9064fa362fe32fd19695551f3b4750cd5e663a4b5591a864736f6c634300081e0033",
  "linkReferences": {},
  "deployedLinkReferences": {}
}