{
  "_format": "hh-sol-artifact-1",
  "contractName": "GatedDAO",
  "sourceName": "contracts/gatedDao.sol",
  "abi": [
    {
      "inputs": [
        {
          "internalType": "address",
          "name": "_roleContract",
          "type": "address"
        },
        {
          "internalType": "address",
          "name": "_membershipNFT",
          "type": "address"
        }
      ],
      "stateMutability": "nonpayable",
      "type": "constructor"
    },
    {
      "inputs": [],
      "name": "VOTER_ROLE",
      "outputs": [
        {
          "internalType": "bytes32",
          "name": "",
          "type": "bytes32"
        }
      ],
      "stateMutability": "view",
      "type": "function"
    },
    {
      "inputs": [
        {
          "internalType": "string",
          "name": "description",
          "type": "string"
        },
        {
          "internalType": "uint256",
          "name": "tokenId",
          "type": "uint256"
        }
      ],
      "name": "createProposal",
      "outputs": [],
      "stateMutability": "nonpayable",
      "type": "function"
    },
    {
      "inputs": [],
      "name": "getProposals",
      "outputs": [
        {
          "internalType": "string[]",
          "name": "",
          "type": "string[]"
        }
      ],
      "stateMutability": "view",
      "type": "function"
    },
    {
      "inputs": [],
      "name": "membershipNFT",
      "outputs": [
        {
          "internalType": "address",
          "name": "",
          "type": "address"
        }
      ],
      "stateMutability": "view",
      "type": "function"
    },
    {
      "inputs": [
        {
          "internalType": "uint256",
          "name": "",
          "type": "uint256"
        }
      ],
      "name": "proposals",
      "outputs": [
        {
          "internalType": "string",
          "name": "",
          "type": "string"
        }
      ],
      "stateMutability": "view",
      "type": "function"
    },
    {
      "inputs": [],
      "name": "roleContract",
      "outputs": [
        {
          "internalType": "contract IERC7432",
          "name": "",
          "type": "address"
        }
      ],
      "stateMutability": "view",
      "type": "function"
    },
    {
      "inputs": [
        {
          "internalType": "uint256",
          "name": "proposalId",
          "type": "uint256"
        },
        {
          "internalType": "uint256",
          "name": "tokenId",
          "type": "uint256"
        }
      ],
      "name": "vote",
      "outputs": [],
      "stateMutability": "nonpayable",
      "type": "function"
    },
    {
      "inputs": [
        {
          "internalType": "uint256",
          "name": "",
          "type": "uint256"
        }
      ],
      "name": "votes",
      "outputs": [
        {
          "internalType": "uint256",
          "name": "",
          "type": "uint256"
        }
      ],
      "stateMutability": "view",
      "type": "function"
    }
  ],
  "bytecode": "0x608060405234801561001057600080fd5b50604051611387380380611387833981810160405281019061003291906101aa565b816000806101000a81548173ffffffffffffffffffffffffffffffffffffffff021916908373ffffffffffffffffffffffffffffffffffffffff16021790555080600160006101000a81548173ffffffffffffffffffffffffffffffffffffffff021916908373ffffffffffffffffffffffffffffffffffffffff160217905550600160009054906101000a900473ffffffffffffffffffffffffffffffffffffffff1673ffffffffffffffffffffffffffffffffffffffff16636a627842336040518263ffffffff1660e01b815260040161010e91906101f9565b600060405180830381600087803b15801561012857600080fd5b505af115801561013c573d6000803e3d6000fd5b505050505050610214565b600080fd5b600073ffffffffffffffffffffffffffffffffffffffff82169050919050565b60006101778261014c565b9050919050565b6101878161016c565b811461019257600080fd5b50565b6000815190506101a48161017e565b92915050565b600080604083850312156101c1576101c0610147565b5b60006101cf85828601610195565b92505060206101e085828601610195565b9150509250929050565b6101f38161016c565b82525050565b600060208201905061020e60008301846101ea565b92915050565b611164806102236000396000f3fe608060405234801561001057600080fd5b50600436106100885760003560e01c8063985d0b1e1161005b578063985d0b1e14610127578063a94015c814610145578063b384abef14610163578063f89723b81461017f57610088565b8063013cf08b1461008d57806335facf78146100bd5780635df81330146100d957806362564c4814610109575b600080fd5b6100a760048036038101906100a2919061072f565b61019d565b6040516100b491906107ec565b60405180910390f35b6100d760048036038101906100d29190610943565b610249565b005b6100f360048036038101906100ee919061072f565b6103c9565b60405161010091906109ae565b60405180910390f35b6101116103e1565b60405161011e9190610ad5565b60405180910390f35b61012f6104ba565b60405161013c9190610b38565b60405180910390f35b61014d6104e0565b60405161015a9190610b6c565b60405180910390f35b61017d60048036038101906101789190610b87565b610504565b005b6101876106c1565b6040516101949190610c26565b60405180910390f35b600281815481106101ad57600080fd5b9060005260206000200160009150905080546101c890610c70565b80601f01602080910402602001604051908101604052809291908181526020018280546101f490610c70565b80156102415780601f1061021657610100808354040283529160200191610241565b820191906000526020600020905b81548152906001019060200180831161022457829003601f168201915b505050505081565b8060008054906101000a900473ffffffffffffffffffffffffffffffffffffffff1673ffffffffffffffffffffffffffffffffffffffff166353f8a7ce7f15283fd96aa656c9df35ac2fcb112678a5f24f1ca97e591a97d1d16003dbfc9c600160009054906101000a900473ffffffffffffffffffffffffffffffffffffffff1684600160009054906101000a900473ffffffffffffffffffffffffffffffffffffffff16336040518663ffffffff1660e01b815260040161030f959493929190610ca1565b602060405180830381865afa15801561032c573d6000803e3d6000fd5b505050506040513d601f19601f820116820180604052508101906103509190610d2c565b61038f576040517f08c379a000000000000000000000000000000000000000000000000000000000815260040161038690610dcb565b60405180910390fd5b6002839080600181540180825580915050600190039060005260206000200160009091909190915090816103c39190610f8d565b50505050565b60036020528060005260406000206000915090505481565b60606002805480602002602001604051908101604052809291908181526020016000905b828210156104b157838290600052602060002001805461042490610c70565b80601f016020809104026020016040519081016040528092919081815260200182805461045090610c70565b801561049d5780601f106104725761010080835404028352916020019161049d565b820191906000526020600020905b81548152906001019060200180831161048057829003601f168201915b505050505081526020019060010190610405565b50505050905090565b600160009054906101000a900473ffffffffffffffffffffffffffffffffffffffff1681565b7f15283fd96aa656c9df35ac2fcb112678a5f24f1ca97e591a97d1d16003dbfc9c81565b8060008054906101000a900473ffffffffffffffffffffffffffffffffffffffff1673ffffffffffffffffffffffffffffffffffffffff166353f8a7ce7f15283fd96aa656c9df35ac2fcb112678a5f24f1ca97e591a97d1d16003dbfc9c600160009054906101000a900473ffffffffffffffffffffffffffffffffffffffff1684600160009054906101000a900473ffffffffffffffffffffffffffffffffffffffff16336040518663ffffffff1660e01b81526004016105ca959493929190610ca1565b602060405180830381865afa1580156105e7573d6000803e3d6000fd5b505050506040513d601f19601f8201168201806040525081019061060b9190610d2c565b61064a576040517f08c379a000000000000000000000000000000000000000000000000000000000815260040161064190610dcb565b60405180910390fd5b6002805490508310610691576040517f08c379a0000000000000000000000000000000000000000000000000000000008152600401610688906110ab565b60405180910390fd5b60016003600085815260200190815260200160002060008282546106b591906110fa565b92505081905550505050565b60008054906101000a900473ffffffffffffffffffffffffffffffffffffffff1681565b6000604051905090565b600080fd5b600080fd5b6000819050919050565b61070c816106f9565b811461071757600080fd5b50565b60008135905061072981610703565b92915050565b600060208284031215610745576107446106ef565b5b60006107538482850161071a565b91505092915050565b600081519050919050565b600082825260208201905092915050565b60005b8381101561079657808201518184015260208101905061077b565b60008484015250505050565b6000601f19601f8301169050919050565b60006107be8261075c565b6107c88185610767565b93506107d8818560208601610778565b6107e1816107a2565b840191505092915050565b6000602082019050818103600083015261080681846107b3565b905092915050565b600080fd5b600080fd5b7f4e487b7100000000000000000000000000000000000000000000000000000000600052604160045260246000fd5b610850826107a2565b810181811067ffffffffffffffff8211171561086f5761086e610818565b5b80604052505050565b60006108826106e5565b905061088e8282610847565b919050565b600067ffffffffffffffff8211156108ae576108ad610818565b5b6108b7826107a2565b9050602081019050919050565b82818337600083830152505050565b60006108e66108e184610893565b610878565b90508281526020810184848401111561090257610901610813565b5b61090d8482856108c4565b509392505050565b600082601f83011261092a5761092961080e565b5b813561093a8482602086016108d3565b91505092915050565b6000806040838503121561095a576109596106ef565b5b600083013567ffffffffffffffff811115610978576109776106f4565b5b61098485828601610915565b92505060206109958582860161071a565b9150509250929050565b6109a8816106f9565b82525050565b60006020820190506109c3600083018461099f565b92915050565b600081519050919050565b600082825260208201905092915050565b6000819050602082019050919050565b600082825260208201905092915050565b6000610a118261075c565b610a1b81856109f5565b9350610a2b818560208601610778565b610a34816107a2565b840191505092915050565b6000610a4b8383610a06565b905092915050565b6000602082019050919050565b6000610a6b826109c9565b610a7581856109d4565b935083602082028501610a87856109e5565b8060005b85811015610ac35784840389528151610aa48582610a3f565b9450610aaf83610a53565b925060208a01995050600181019050610a8b565b50829750879550505050505092915050565b60006020820190508181036000830152610aef8184610a60565b905092915050565b600073ffffffffffffffffffffffffffffffffffffffff82169050919050565b6000610b2282610af7565b9050919050565b610b3281610b17565b82525050565b6000602082019050610b4d6000830184610b29565b92915050565b6000819050919050565b610b6681610b53565b82525050565b6000602082019050610b816000830184610b5d565b92915050565b60008060408385031215610b9e57610b9d6106ef565b5b6000610bac8582860161071a565b9250506020610bbd8582860161071a565b9150509250929050565b6000819050919050565b6000610bec610be7610be284610af7565b610bc7565b610af7565b9050919050565b6000610bfe82610bd1565b9050919050565b6000610c1082610bf3565b9050919050565b610c2081610c05565b82525050565b6000602082019050610c3b6000830184610c17565b92915050565b7f4e487b7100000000000000000000000000000000000000000000000000000000600052602260045260246000fd5b60006002820490506001821680610c8857607f821691505b602082108103610c9b57610c9a610c41565b5b50919050565b600060a082019050610cb66000830188610b5d565b610cc36020830187610b29565b610cd0604083018661099f565b610cdd6060830185610b29565b610cea6080830184610b29565b9695505050505050565b60008115159050919050565b610d0981610cf4565b8114610d1457600080fd5b50565b600081519050610d2681610d00565b92915050565b600060208284031215610d4257610d416106ef565b5b6000610d5084828501610d17565b91505092915050565b7f4e6f7420617574686f72697a65643a204d697373696e6720766f74657220726f60008201527f6c65000000000000000000000000000000000000000000000000000000000000602082015250565b6000610db5602283610767565b9150610dc082610d59565b604082019050919050565b60006020820190508181036000830152610de481610da8565b9050919050565b60008190508160005260206000209050919050565b60006020601f8301049050919050565b600082821b905092915050565b600060088302610e4d7fffffffffffffffffffffffffffffffffffffffffffffffffffffffffffffffff82610e10565b610e578683610e10565b95508019841693508086168417925050509392505050565b6000610e8a610e85610e80846106f9565b610bc7565b6106f9565b9050919050565b6000819050919050565b610ea483610e6f565b610eb8610eb082610e91565b848454610e1d565b825550505050565b600090565b610ecd610ec0565b610ed8818484610e9b565b505050565b5b81811015610efc57610ef1600082610ec5565b600181019050610ede565b5050565b601f821115610f4157610f1281610deb565b610f1b84610e00565b81016020851015610f2a578190505b610f3e610f3685610e00565b830182610edd565b50505b505050565b600082821c905092915050565b6000610f6460001984600802610f46565b1980831691505092915050565b6000610f7d8383610f53565b9150826002028217905092915050565b610f968261075c565b67ffffffffffffffff811115610faf57610fae610818565b5b610fb98254610c70565b610fc4828285610f00565b600060209050601f831160018114610ff75760008415610fe5578287015190505b610fef8582610f71565b865550611057565b601f19841661100586610deb565b60005b8281101561102d57848901518255600182019150602085019450602081019050611008565b8683101561104a5784890151611046601f891682610f53565b8355505b6001600288020188555050505b505050505050565b7f496e76616c69642070726f706f73616c00000000000000000000000000000000600082015250565b6000611095601083610767565b91506110a08261105f565b602082019050919050565b600060208201905081810360008301526110c481611088565b9050919050565b7f4e487b7100000000000000000000000000000000000000000000000000000000600052601160045260246000fd5b6000611105826106f9565b9150611110836106f9565b9250828201905080821115611128576111276110cb565b5b9291505056fea2646970667358221220490dc1e7132bb28afc968b41be27de159c6ec56bf90157a232427f7d9268291564736f6c634300081e0033",
  "linkReferences": {},
  "deployedLinkReferences": {}
}