{
  "_format": "hh-sol-artifact-1",
  "contractName": "ManageTeacher",
  "sourceName": "contracts/manageTeacher.sol",
  "abi": [
    {
      "inputs": [],
      "stateMutability": "nonpayable",
      "type": "constructor"
    },
    {
      "inputs": [],
      "name": "NotAuthorised",
      "type": "error"
    },
    {
      "inputs": [],
      "name": "NotEmployed",
      "type": "error"
    },
    {
      "inputs": [],
      "name": "TeacherNotFound",
      "type": "error"
    },
    {
      "inputs": [],
      "name": "admin",
      "outputs": [
        {
          "internalType": "address",
          "name": "",
          "type": "address"
        }
      ],
      "stateMutability": "view",
      "type": "function"
    },
    {
      "inputs": [
        {
          "internalType": "address",
          "name": "_teacher",
          "type": "address"
        }
      ],
      "name": "getTeacher",
      "outputs": [
        {
          "components": [
            {
              "internalType": "uint256",
              "name": "salary",
              "type": "uint256"
            },
            {
              "internalType": "enum Status",
              "name": "status",
              "type": "uint8"
            },
            {
              "internalType": "bool",
              "name": "employed",
              "type": "bool"
            },
            {
              "internalType": "bool",
              "name": "exists",
              "type": "bool"
            }
          ],
          "internalType": "struct Teacher",
          "name": "",
          "type": "tuple"
        }
      ],
      "stateMutability": "view",
      "type": "function"
    },
    {
      "inputs": [
        {
          "internalType": "address",
          "name": "_teacher",
          "type": "address"
        }
      ],
      "name": "payTeacher",
      "outputs": [],
      "stateMutability": "payable",
      "type": "function"
    },
    {
      "inputs": [
        {
          "internalType": "address",
          "name": "_teacher",
          "type": "address"
        },
        {
          "internalType": "uint256",
          "name": "_salary",
          "type": "uint256"
        }
      ],
      "name": "regTeacher",
      "outputs": [],
      "stateMutability": "nonpayable",
      "type": "function"
    },
    {
      "inputs": [
        {
          "internalType": "address",
          "name": "",
          "type": "address"
        }
      ],
      "name": "teachers",
      "outputs": [
        {
          "internalType": "uint256",
          "name": "salary",
          "type": "uint256"
        },
        {
          "internalType": "enum Status",
          "name": "status",
          "type": "uint8"
        },
        {
          "internalType": "bool",
          "name": "employed",
          "type": "bool"
        },
        {
          "internalType": "bool",
          "name": "exists",
          "type": "bool"
        }
      ],
      "stateMutability": "view",
      "type": "function"
    },
    {
      "inputs": [
        {
          "internalType": "address",
          "name": "_teacher",
          "type": "address"
        },
        {
          "internalType": "enum Status",
          "name": "_status",
          "type": "uint8"
        }
      ],
      "name": "updateTeacherStatus",
      "outputs": [],
      "stateMutability": "nonpayable",
      "type": "function"
    },
    {
      "stateMutability": "payable",
      "type": "receive"
    }
  ],
  "bytecode": "0x6080604052348015600f57600080fd5b50336000806101000a81548173ffffffffffffffffffffffffffffffffffffffff021916908373ffffffffffffffffffffffffffffffffffffffff160217905550610b888061005f6000396000f3fe6080604052600436106100595760003560e01c806337a1119f146100655780633c5409861461008e578063be9c2e90146100aa578063f0a47f78146100d3578063f851a44014610113578063fb4326fa1461013e57610060565b3661006057005b600080fd5b34801561007157600080fd5b5061008c600480360381019061008791906108c2565b61017b565b005b6100a860048036038101906100a39190610902565b6102f4565b005b3480156100b657600080fd5b506100d160048036038101906100cc9190610965565b61052e565b005b3480156100df57600080fd5b506100fa60048036038101906100f59190610902565b6106ad565b60405161010a9493929190610a46565b60405180910390f35b34801561011f57600080fd5b50610128610704565b6040516101359190610a9a565b60405180910390f35b34801561014a57600080fd5b5061016560048036038101906101609190610902565b610728565b6040516101729190610b37565b60405180910390f35b60008054906101000a900473ffffffffffffffffffffffffffffffffffffffff1673ffffffffffffffffffffffffffffffffffffffff163373ffffffffffffffffffffffffffffffffffffffff1614610200576040517f1648fd0100000000000000000000000000000000000000000000000000000000815260040160405180910390fd5b600160008373ffffffffffffffffffffffffffffffffffffffff1673ffffffffffffffffffffffffffffffffffffffff16815260200190815260200160002060010160029054906101000a900460ff16610286576040517f80e61f3100000000000000000000000000000000000000000000000000000000815260040160405180910390fd5b80600160008473ffffffffffffffffffffffffffffffffffffffff1673ffffffffffffffffffffffffffffffffffffffff16815260200190815260200160002060010160006101000a81548160ff021916908360028111156102eb576102ea6109b4565b5b02179055505050565b60008054906101000a900473ffffffffffffffffffffffffffffffffffffffff1673ffffffffffffffffffffffffffffffffffffffff163373ffffffffffffffffffffffffffffffffffffffff1614610379576040517f1648fd0100000000000000000000000000000000000000000000000000000000815260040160405180910390fd5b6000600160008373ffffffffffffffffffffffffffffffffffffffff1673ffffffffffffffffffffffffffffffffffffffff168152602001908152602001600020604051806080016040529081600082015481526020016001820160009054906101000a900460ff1660028111156103f4576103f36109b4565b5b6002811115610406576104056109b4565b5b81526020016001820160019054906101000a900460ff161515151581526020016001820160029054906101000a900460ff1615151515815250509050806060015161047d576040517f80e61f3100000000000000000000000000000000000000000000000000000000815260040160405180910390fd5b60006002811115610491576104906109b4565b5b816020015160028111156104a8576104a76109b4565b5b146104df576040517f7989981d00000000000000000000000000000000000000000000000000000000815260040160405180910390fd5b8173ffffffffffffffffffffffffffffffffffffffff166108fc82600001519081150290604051600060405180830381858888f19350505050158015610529573d6000803e3d6000fd5b505050565b60008054906101000a900473ffffffffffffffffffffffffffffffffffffffff1673ffffffffffffffffffffffffffffffffffffffff163373ffffffffffffffffffffffffffffffffffffffff16146105b3576040517f1648fd0100000000000000000000000000000000000000000000000000000000815260040160405180910390fd5b6040518060800160405280828152602001600060028111156105d8576105d76109b4565b5b815260200160011515815260200160011515815250600160008473ffffffffffffffffffffffffffffffffffffffff1673ffffffffffffffffffffffffffffffffffffffff1681526020019081526020016000206000820151816000015560208201518160010160006101000a81548160ff02191690836002811115610661576106606109b4565b5b021790555060408201518160010160016101000a81548160ff02191690831515021790555060608201518160010160026101000a81548160ff0219169083151502179055509050505050565b60016020528060005260406000206000915090508060000154908060010160009054906101000a900460ff16908060010160019054906101000a900460ff16908060010160029054906101000a900460ff16905084565b60008054906101000a900473ffffffffffffffffffffffffffffffffffffffff1681565b6107306107fc565b600160008373ffffffffffffffffffffffffffffffffffffffff1673ffffffffffffffffffffffffffffffffffffffff168152602001908152602001600020604051806080016040529081600082015481526020016001820160009054906101000a900460ff1660028111156107a9576107a86109b4565b5b60028111156107bb576107ba6109b4565b5b81526020016001820160019054906101000a900460ff161515151581526020016001820160029054906101000a900460ff1615151515815250509050919050565b60405180608001604052806000815260200160006002811115610822576108216109b4565b5b81526020016000151581526020016000151581525090565b600080fd5b600073ffffffffffffffffffffffffffffffffffffffff82169050919050565b600061086a8261083f565b9050919050565b61087a8161085f565b811461088557600080fd5b50565b60008135905061089781610871565b92915050565b600381106108aa57600080fd5b50565b6000813590506108bc8161089d565b92915050565b600080604083850312156108d9576108d861083a565b5b60006108e785828601610888565b92505060206108f8858286016108ad565b9150509250929050565b6000602082840312156109185761091761083a565b5b600061092684828501610888565b91505092915050565b6000819050919050565b6109428161092f565b811461094d57600080fd5b50565b60008135905061095f81610939565b92915050565b6000806040838503121561097c5761097b61083a565b5b600061098a85828601610888565b925050602061099b85828601610950565b9150509250929050565b6109ae8161092f565b82525050565b7f4e487b7100000000000000000000000000000000000000000000000000000000600052602160045260246000fd5b600381106109f4576109f36109b4565b5b50565b6000819050610a05826109e3565b919050565b6000610a15826109f7565b9050919050565b610a2581610a0a565b82525050565b60008115159050919050565b610a4081610a2b565b82525050565b6000608082019050610a5b60008301876109a5565b610a686020830186610a1c565b610a756040830185610a37565b610a826060830184610a37565b95945050505050565b610a948161085f565b82525050565b6000602082019050610aaf6000830184610a8b565b92915050565b610abe8161092f565b82525050565b610acd81610a0a565b82525050565b610adc81610a2b565b82525050565b608082016000820151610af86000850182610ab5565b506020820151610b0b6020850182610ac4565b506040820151610b1e6040850182610ad3565b506060820151610b316060850182610ad3565b50505050565b6000608082019050610b4c6000830184610ae2565b9291505056fea2646970667358221220c71aabd498aa587d76b71b0f118358cd1918a2204de6bd511942a1df4371427c64736f6c634300081e0033",
  "linkReferences": {},
  "deployedLinkReferences": {}
}