{
  "_format": "hh-sol-artifact-1",
  "contractName": "TokenFactory",
  "sourceName": "contracts/FactoryContract.sol",
  "abi": [
    {
      "anonymous": false,
      "inputs": [
        {
          "indexed": true,
          "internalType": "address",
          "name": "tokenAddress",
          "type": "address"
        },
        {
          "indexed": false,
          "internalType": "string",
          "name": "name",
          "type": "string"
        },
        {
          "indexed": false,
          "internalType": "string",
          "name": "symbol",
          "type": "string"
        },
        {
          "indexed": false,
          "internalType": "uint256",
          "name": "supply",
          "type": "uint256"
        },
        {
          "indexed": false,
          "internalType": "address",
          "name": "creator",
          "type": "address"
        }
      ],
      "name": "TokenCreated",
      "type": "event"
    },
    {
      "inputs": [
        {
          "internalType": "uint256",
          "name": "",
          "type": "uint256"
        }
      ],
      "name": "allTokens",
      "outputs": [
        {
          "internalType": "address",
          "name": "",
          "type": "address"
        }
      ],
      "stateMutability": "view",
      "type": "function"
    },
    {
      "inputs": [
        {
          "internalType": "string",
          "name": "name",
          "type": "string"
        },
        {
          "internalType": "string",
          "name": "symbol",
          "type": "string"
        },
        {
          "internalType": "uint256",
          "name": "supply",
          "type": "uint256"
        }
      ],
      "name": "createToken",
      "outputs": [
        {
          "internalType": "address",
          "name": "",
          "type": "address"
        }
      ],
      "stateMutability": "nonpayable",
      "type": "function"
    },
    {
      "inputs": [],
      "name": "getDeployedTokens",
      "outputs": [
        {
          "internalType": "address[]",
          "name": "",
          "type": "address[]"
        }
      ],
      "stateMutability": "view",
      "type": "function"
    }
  ],
  "bytecode": "0x6080604052348015600f57600080fd5b50611f9c8061001f6000396000f3fe608060405234801561001057600080fd5b50600436106100415760003560e01c80635b06053014610046578063622ae7aa14610076578063634282af14610094575b600080fd5b610060600480360381019061005b919061042d565b6100c4565b60405161006d91906104f9565b60405180910390f35b61007e6101c3565b60405161008b91906105d2565b60405180910390f35b6100ae60048036038101906100a991906105f4565b610251565b6040516100bb91906104f9565b60405180910390f35b6000808484846040516100d690610290565b6100e2939291906106af565b604051809103906000f0801580156100fe573d6000803e3d6000fd5b5090506000819080600181540180825580915050600190039060005260206000200160009091909190916101000a81548173ffffffffffffffffffffffffffffffffffffffff021916908373ffffffffffffffffffffffffffffffffffffffff1602179055508073ffffffffffffffffffffffffffffffffffffffff167fb7d8fd3c9d56d12c15c8e139bc4e6febd6ad2349b3ebe6a1a91c0a9e7797710d868686336040516101b094939291906106f4565b60405180910390a2809150509392505050565b6060600080548060200260200160405190810160405280929190818152602001828054801561024757602002820191906000526020600020905b8160009054906101000a900473ffffffffffffffffffffffffffffffffffffffff1673ffffffffffffffffffffffffffffffffffffffff16815260200190600101908083116101fd575b5050505050905090565b6000818154811061026157600080fd5b906000526020600020016000915054906101000a900473ffffffffffffffffffffffffffffffffffffffff1681565b61181f8061074883390190565b6000604051905090565b600080fd5b600080fd5b600080fd5b600080fd5b6000601f19601f8301169050919050565b7f4e487b7100000000000000000000000000000000000000000000000000000000600052604160045260246000fd5b610304826102bb565b810181811067ffffffffffffffff82111715610323576103226102cc565b5b80604052505050565b600061033661029d565b905061034282826102fb565b919050565b600067ffffffffffffffff821115610362576103616102cc565b5b61036b826102bb565b9050602081019050919050565b82818337600083830152505050565b600061039a61039584610347565b61032c565b9050828152602081018484840111156103b6576103b56102b6565b5b6103c1848285610378565b509392505050565b600082601f8301126103de576103dd6102b1565b5b81356103ee848260208601610387565b91505092915050565b6000819050919050565b61040a816103f7565b811461041557600080fd5b50565b60008135905061042781610401565b92915050565b600080600060608486031215610446576104456102a7565b5b600084013567ffffffffffffffff811115610464576104636102ac565b5b610470868287016103c9565b935050602084013567ffffffffffffffff811115610491576104906102ac565b5b61049d868287016103c9565b92505060406104ae86828701610418565b9150509250925092565b600073ffffffffffffffffffffffffffffffffffffffff82169050919050565b60006104e3826104b8565b9050919050565b6104f3816104d8565b82525050565b600060208201905061050e60008301846104ea565b92915050565b600081519050919050565b600082825260208201905092915050565b6000819050602082019050919050565b610549816104d8565b82525050565b600061055b8383610540565b60208301905092915050565b6000602082019050919050565b600061057f82610514565b610589818561051f565b935061059483610530565b8060005b838110156105c55781516105ac888261054f565b97506105b783610567565b925050600181019050610598565b5085935050505092915050565b600060208201905081810360008301526105ec8184610574565b905092915050565b60006020828403121561060a576106096102a7565b5b600061061884828501610418565b91505092915050565b600081519050919050565b600082825260208201905092915050565b60005b8381101561065b578082015181840152602081019050610640565b60008484015250505050565b600061067282610621565b61067c818561062c565b935061068c81856020860161063d565b610695816102bb565b840191505092915050565b6106a9816103f7565b82525050565b600060608201905081810360008301526106c98186610667565b905081810360208301526106dd8185610667565b90506106ec60408301846106a0565b949350505050565b6000608082019050818103600083015261070e8187610667565b905081810360208301526107228186610667565b905061073160408301856106a0565b61073e60608301846104ea565b9594505050505056fe608060405234801561001057600080fd5b5060405161181f38038061181f833981810160405281019061003291906102e1565b336000806101000a81548173ffffffffffffffffffffffffffffffffffffffff021916908373ffffffffffffffffffffffffffffffffffffffff1602179055508060068190555080600160003373ffffffffffffffffffffffffffffffffffffffff1673ffffffffffffffffffffffffffffffffffffffff168152602001908152602001600020819055506040518060600160405280848152602001838152602001601260ff16815250600360008201518160000190816100f39190610583565b5060208201518160010190816101099190610583565b5060408201518160020160006101000a81548160ff021916908360ff160217905550905050505050610655565b6000604051905090565b600080fd5b600080fd5b600080fd5b600080fd5b6000601f19601f8301169050919050565b7f4e487b7100000000000000000000000000000000000000000000000000000000600052604160045260246000fd5b61019d82610154565b810181811067ffffffffffffffff821117156101bc576101bb610165565b5b80604052505050565b60006101cf610136565b90506101db8282610194565b919050565b600067ffffffffffffffff8211156101fb576101fa610165565b5b61020482610154565b9050602081019050919050565b60005b8381101561022f578082015181840152602081019050610214565b60008484015250505050565b600061024e610249846101e0565b6101c5565b90508281526020810184848401111561026a5761026961014f565b5b610275848285610211565b509392505050565b600082601f8301126102925761029161014a565b5b81516102a284826020860161023b565b91505092915050565b6000819050919050565b6102be816102ab565b81146102c957600080fd5b50565b6000815190506102db816102b5565b92915050565b6000806000606084860312156102fa576102f9610140565b5b600084015167ffffffffffffffff81111561031857610317610145565b5b6103248682870161027d565b935050602084015167ffffffffffffffff81111561034557610344610145565b5b6103518682870161027d565b9250506040610362868287016102cc565b9150509250925092565b600081519050919050565b7f4e487b7100000000000000000000000000000000000000000000000000000000600052602260045260246000fd5b600060028204905060018216806103be57607f821691505b6020821081036103d1576103d0610377565b5b50919050565b60008190508160005260206000209050919050565b60006020601f8301049050919050565b600082821b905092915050565b6000600883026104397fffffffffffffffffffffffffffffffffffffffffffffffffffffffffffffffff826103fc565b61044386836103fc565b95508019841693508086168417925050509392505050565b6000819050919050565b600061048061047b610476846102ab565b61045b565b6102ab565b9050919050565b6000819050919050565b61049a83610465565b6104ae6104a682610487565b848454610409565b825550505050565b600090565b6104c36104b6565b6104ce818484610491565b505050565b5b818110156104f2576104e76000826104bb565b6001810190506104d4565b5050565b601f82111561053757610508816103d7565b610511846103ec565b81016020851015610520578190505b61053461052c856103ec565b8301826104d3565b50505b505050565b600082821c905092915050565b600061055a6000198460080261053c565b1980831691505092915050565b60006105738383610549565b9150826002028217905092915050565b61058c8261036c565b67ffffffffffffffff8111156105a5576105a4610165565b5b6105af82546103a6565b6105ba8282856104f6565b600060209050601f8311600181146105ed57600084156105db578287015190505b6105e58582610567565b86555061064d565b601f1984166105fb866103d7565b60005b82811015610623578489015182556001820191506020850194506020810190506105fe565b86831015610640578489015161063c601f891682610549565b8355505b6001600288020188555050505b505050505050565b6111bb806106646000396000f3fe608060405234801561001057600080fd5b50600436106100a95760003560e01c806370a082311161007157806370a08231146101685780638da5cb5b1461019857806395d89b41146101b6578063a9059cbb146101d4578063dd62ed3e14610204578063fc0c546a14610234576100a9565b806306fdde03146100ae578063095ea7b3146100cc57806318160ddd146100fc57806323b872dd1461011a578063313ce5671461014a575b600080fd5b6100b6610254565b6040516100c39190610c1d565b60405180910390f35b6100e660048036038101906100e19190610cd8565b6102e9565b6040516100f39190610d33565b60405180910390f35b6101046103db565b6040516101119190610d5d565b60405180910390f35b610134600480360381019061012f9190610d78565b6103e1565b6040516101419190610d33565b60405180910390f35b610152610716565b60405161015f9190610de7565b60405180910390f35b610182600480360381019061017d9190610e02565b610730565b60405161018f9190610d5d565b60405180910390f35b6101a0610779565b6040516101ad9190610e3e565b60405180910390f35b6101be61079d565b6040516101cb9190610c1d565b60405180910390f35b6101ee60048036038101906101e99190610cd8565b610832565b6040516101fb9190610d33565b60405180910390f35b61021e60048036038101906102199190610e59565b6109d1565b60405161022b9190610d5d565b60405180910390f35b61023c610a58565b60405161024b93929190610e99565b60405180910390f35b60606003600001805461026690610f0d565b80601f016020809104026020016040519081016040528092919081815260200182805461029290610f0d565b80156102df5780601f106102b4576101008083540402835291602001916102df565b820191906000526020600020905b8154815290600101906020018083116102c257829003601f168201915b5050505050905090565b600081600260003373ffffffffffffffffffffffffffffffffffffffff1673ffffffffffffffffffffffffffffffffffffffff16815260200190815260200160002060008573ffffffffffffffffffffffffffffffffffffffff1673ffffffffffffffffffffffffffffffffffffffff168152602001908152602001600020819055508273ffffffffffffffffffffffffffffffffffffffff163373ffffffffffffffffffffffffffffffffffffffff167f8c5be1e5ebec7d5bd14f71427d1e84f3dd0314c0f7b2291e5b200ac8c7c3b925846040516103c99190610d5d565b60405180910390a36001905092915050565b60065481565b600081600160008673ffffffffffffffffffffffffffffffffffffffff1673ffffffffffffffffffffffffffffffffffffffff168152602001908152602001600020541015610465576040517f08c379a000000000000000000000000000000000000000000000000000000000815260040161045c90610f8a565b60405180910390fd5b81600260008673ffffffffffffffffffffffffffffffffffffffff1673ffffffffffffffffffffffffffffffffffffffff16815260200190815260200160002060003373ffffffffffffffffffffffffffffffffffffffff1673ffffffffffffffffffffffffffffffffffffffff168152602001908152602001600020541015610524576040517f08c379a000000000000000000000000000000000000000000000000000000000815260040161051b90610ff6565b60405180910390fd5b60008211610567576040517f08c379a000000000000000000000000000000000000000000000000000000000815260040161055e90611062565b60405180910390fd5b81600160008673ffffffffffffffffffffffffffffffffffffffff1673ffffffffffffffffffffffffffffffffffffffff16815260200190815260200160002060008282546105b691906110b1565b9250508190555081600160008573ffffffffffffffffffffffffffffffffffffffff1673ffffffffffffffffffffffffffffffffffffffff168152602001908152602001600020600082825461060c91906110e5565b9250508190555081600260008673ffffffffffffffffffffffffffffffffffffffff1673ffffffffffffffffffffffffffffffffffffffff16815260200190815260200160002060003373ffffffffffffffffffffffffffffffffffffffff1673ffffffffffffffffffffffffffffffffffffffff168152602001908152602001600020600082825461069f91906110b1565b925050819055508273ffffffffffffffffffffffffffffffffffffffff168473ffffffffffffffffffffffffffffffffffffffff167fddf252ad1be2c89b69c2b068fc378daa952ba7f163c4a11628f55a4df523b3ef846040516107039190610d5d565b60405180910390a3600190509392505050565b6000600360020160009054906101000a900460ff16905090565b6000600160008373ffffffffffffffffffffffffffffffffffffffff1673ffffffffffffffffffffffffffffffffffffffff168152602001908152602001600020549050919050565b60008054906101000a900473ffffffffffffffffffffffffffffffffffffffff1681565b6060600360010180546107af90610f0d565b80601f01602080910402602001604051908101604052809291908181526020018280546107db90610f0d565b80156108285780601f106107fd57610100808354040283529160200191610828565b820191906000526020600020905b81548152906001019060200180831161080b57829003601f168201915b5050505050905090565b600081600160003373ffffffffffffffffffffffffffffffffffffffff1673ffffffffffffffffffffffffffffffffffffffff1681526020019081526020016000205410156108b6576040517f08c379a00000000000000000000000000000000000000000000000000000000081526004016108ad90611165565b60405180910390fd5b81600160003373ffffffffffffffffffffffffffffffffffffffff1673ffffffffffffffffffffffffffffffffffffffff168152602001908152602001600020600082825461090591906110b1565b9250508190555081600160008573ffffffffffffffffffffffffffffffffffffffff1673ffffffffffffffffffffffffffffffffffffffff168152602001908152602001600020600082825461095b91906110e5565b925050819055508273ffffffffffffffffffffffffffffffffffffffff163373ffffffffffffffffffffffffffffffffffffffff167fddf252ad1be2c89b69c2b068fc378daa952ba7f163c4a11628f55a4df523b3ef846040516109bf9190610d5d565b60405180910390a36001905092915050565b6000600260008473ffffffffffffffffffffffffffffffffffffffff1673ffffffffffffffffffffffffffffffffffffffff16815260200190815260200160002060008373ffffffffffffffffffffffffffffffffffffffff1673ffffffffffffffffffffffffffffffffffffffff16815260200190815260200160002054905092915050565b6003806000018054610a6990610f0d565b80601f0160208091040260200160405190810160405280929190818152602001828054610a9590610f0d565b8015610ae25780601f10610ab757610100808354040283529160200191610ae2565b820191906000526020600020905b815481529060010190602001808311610ac557829003601f168201915b505050505090806001018054610af790610f0d565b80601f0160208091040260200160405190810160405280929190818152602001828054610b2390610f0d565b8015610b705780601f10610b4557610100808354040283529160200191610b70565b820191906000526020600020905b815481529060010190602001808311610b5357829003601f168201915b5050505050908060020160009054906101000a900460ff16905083565b600081519050919050565b600082825260208201905092915050565b60005b83811015610bc7578082015181840152602081019050610bac565b60008484015250505050565b6000601f19601f8301169050919050565b6000610bef82610b8d565b610bf98185610b98565b9350610c09818560208601610ba9565b610c1281610bd3565b840191505092915050565b60006020820190508181036000830152610c378184610be4565b905092915050565b600080fd5b600073ffffffffffffffffffffffffffffffffffffffff82169050919050565b6000610c6f82610c44565b9050919050565b610c7f81610c64565b8114610c8a57600080fd5b50565b600081359050610c9c81610c76565b92915050565b6000819050919050565b610cb581610ca2565b8114610cc057600080fd5b50565b600081359050610cd281610cac565b92915050565b60008060408385031215610cef57610cee610c3f565b5b6000610cfd85828601610c8d565b9250506020610d0e85828601610cc3565b9150509250929050565b60008115159050919050565b610d2d81610d18565b82525050565b6000602082019050610d486000830184610d24565b92915050565b610d5781610ca2565b82525050565b6000602082019050610d726000830184610d4e565b92915050565b600080600060608486031215610d9157610d90610c3f565b5b6000610d9f86828701610c8d565b9350506020610db086828701610c8d565b9250506040610dc186828701610cc3565b9150509250925092565b600060ff82169050919050565b610de181610dcb565b82525050565b6000602082019050610dfc6000830184610dd8565b92915050565b600060208284031215610e1857610e17610c3f565b5b6000610e2684828501610c8d565b91505092915050565b610e3881610c64565b82525050565b6000602082019050610e536000830184610e2f565b92915050565b60008060408385031215610e7057610e6f610c3f565b5b6000610e7e85828601610c8d565b9250506020610e8f85828601610c8d565b9150509250929050565b60006060820190508181036000830152610eb38186610be4565b90508181036020830152610ec78185610be4565b9050610ed66040830184610dd8565b949350505050565b7f4e487b7100000000000000000000000000000000000000000000000000000000600052602260045260246000fd5b60006002820490506001821680610f2557607f821691505b602082108103610f3857610f37610ede565b5b50919050565b7f4e6f7420656e6f7567682062616c616e63650000000000000000000000000000600082015250565b6000610f74601283610b98565b9150610f7f82610f3e565b602082019050919050565b60006020820190508181036000830152610fa381610f67565b9050919050565b7f4e6f7420616c6c6f776564000000000000000000000000000000000000000000600082015250565b6000610fe0600b83610b98565b9150610feb82610faa565b602082019050919050565b6000602082019050818103600083015261100f81610fd3565b9050919050565b7f496e76616c69642076616c756500000000000000000000000000000000000000600082015250565b600061104c600d83610b98565b915061105782611016565b602082019050919050565b6000602082019050818103600083015261107b8161103f565b9050919050565b7f4e487b7100000000000000000000000000000000000000000000000000000000600052601160045260246000fd5b60006110bc82610ca2565b91506110c783610ca2565b92508282039050818111156110df576110de611082565b5b92915050565b60006110f082610ca2565b91506110fb83610ca2565b925082820190508082111561111357611112611082565b5b92915050565b7f496e73756666696369656e742062616c616e6365000000000000000000000000600082015250565b600061114f601483610b98565b915061115a82611119565b602082019050919050565b6000602082019050818103600083015261117e81611142565b905091905056fea2646970667358221220a875cbf2cf91c5b656a30a27ed3364c28e1194be10ec97ab1abdbbb736703d5364736f6c634300081c0033a2646970667358221220baf0565745cf6d967dfc9883bd85c6aae5052ff5ecbf3fca038ddf78e835683664736f6c634300081c0033",
  "linkReferences": {},
  "deployedLinkReferences": {}
}