{
  "_format": "hh-sol-artifact-1",
  "contractName": "SchoolManagementSystem",
  "sourceName": "contracts/SchoolManagementSystem.sol",
  "abi": [
    {
      "inputs": [],
      "name": "INVALID_ID",
      "type": "error"
    },
    {
      "inputs": [],
      "name": "STUDENT_NOT_FOUND",
      "type": "error"
    },
    {
      "inputs": [],
      "name": "UNAUTHORIZED",
      "type": "error"
    },
    {
      "inputs": [],
      "name": "delete_my_account",
      "outputs": [],
      "stateMutability": "nonpayable",
      "type": "function"
    },
    {
      "inputs": [],
      "name": "get_all_students",
      "outputs": [
        {
          "components": [
            {
              "internalType": "address",
              "name": "addy",
              "type": "address"
            },
            {
              "internalType": "uint256",
              "name": "id",
              "type": "uint256"
            },
            {
              "internalType": "string",
              "name": "name",
              "type": "string"
            },
            {
              "internalType": "string",
              "name": "course",
              "type": "string"
            },
            {
              "internalType": "uint256",
              "name": "age",
              "type": "uint256"
            },
            {
              "internalType": "enum SchoolManagementSystem.Status",
              "name": "status",
              "type": "uint8"
            }
          ],
          "internalType": "struct SchoolManagementSystem.StudentDetails[]",
          "name": "",
          "type": "tuple[]"
        }
      ],
      "stateMutability": "view",
      "type": "function"
    },
    {
      "inputs": [],
      "name": "get_my_details",
      "outputs": [
        {
          "components": [
            {
              "internalType": "address",
              "name": "addy",
              "type": "address"
            },
            {
              "internalType": "uint256",
              "name": "id",
              "type": "uint256"
            },
            {
              "internalType": "string",
              "name": "name",
              "type": "string"
            },
            {
              "internalType": "string",
              "name": "course",
              "type": "string"
            },
            {
              "internalType": "uint256",
              "name": "age",
              "type": "uint256"
            },
            {
              "internalType": "enum SchoolManagementSystem.Status",
              "name": "status",
              "type": "uint8"
            }
          ],
          "internalType": "struct SchoolManagementSystem.StudentDetails",
          "name": "",
          "type": "tuple"
        }
      ],
      "stateMutability": "view",
      "type": "function"
    },
    {
      "inputs": [
        {
          "internalType": "uint256",
          "name": "_id",
          "type": "uint256"
        }
      ],
      "name": "get_student_by_id",
      "outputs": [
        {
          "components": [
            {
              "internalType": "address",
              "name": "addy",
              "type": "address"
            },
            {
              "internalType": "uint256",
              "name": "id",
              "type": "uint256"
            },
            {
              "internalType": "string",
              "name": "name",
              "type": "string"
            },
            {
              "internalType": "string",
              "name": "course",
              "type": "string"
            },
            {
              "internalType": "uint256",
              "name": "age",
              "type": "uint256"
            },
            {
              "internalType": "enum SchoolManagementSystem.Status",
              "name": "status",
              "type": "uint8"
            }
          ],
          "internalType": "struct SchoolManagementSystem.StudentDetails",
          "name": "",
          "type": "tuple"
        }
      ],
      "stateMutability": "view",
      "type": "function"
    },
    {
      "inputs": [
        {
          "internalType": "string",
          "name": "_name",
          "type": "string"
        },
        {
          "internalType": "string",
          "name": "_course",
          "type": "string"
        },
        {
          "internalType": "uint256",
          "name": "_age",
          "type": "uint256"
        }
      ],
      "name": "register_student",
      "outputs": [],
      "stateMutability": "nonpayable",
      "type": "function"
    },
    {
      "inputs": [
        {
          "internalType": "uint256",
          "name": "",
          "type": "uint256"
        }
      ],
      "name": "students",
      "outputs": [
        {
          "internalType": "address",
          "name": "addy",
          "type": "address"
        },
        {
          "internalType": "uint256",
          "name": "id",
          "type": "uint256"
        },
        {
          "internalType": "string",
          "name": "name",
          "type": "string"
        },
        {
          "internalType": "string",
          "name": "course",
          "type": "string"
        },
        {
          "internalType": "uint256",
          "name": "age",
          "type": "uint256"
        },
        {
          "internalType": "enum SchoolManagementSystem.Status",
          "name": "status",
          "type": "uint8"
        }
      ],
      "stateMutability": "view",
      "type": "function"
    },
    {
      "inputs": [
        {
          "internalType": "enum SchoolManagementSystem.Status",
          "name": "_new_status",
          "type": "uint8"
        }
      ],
      "name": "update_status",
      "outputs": [],
      "stateMutability": "nonpayable",
      "type": "function"
    },
    {
      "inputs": [
        {
          "internalType": "string",
          "name": "_new_name",
          "type": "string"
        },
        {
          "internalType": "string",
          "name": "_new_course",
          "type": "string"
        },
        {
          "internalType": "uint256",
          "name": "_new_age",
          "type": "uint256"
        }
      ],
      "name": "update_student",
      "outputs": [],
      "stateMutability": "nonpayable",
      "type": "function"
    }
  ],
  "bytecode": "0x6080604052348015600f57600080fd5b506122c18061001f6000396000f3fe608060405234801561001057600080fd5b50600436106100885760003560e01c80638f3354fe1161005b5780638f3354fe1461011a578063c9b729271461014a578063f18aff6614610166578063f973f04a1461018257610088565b806306ead22e1461008d5780633ab9a9ec146100c257806354dcc6eb146100e0578063838d16b9146100fc575b600080fd5b6100a760048036038101906100a29190611698565b61018c565b6040516100b99695949392919061181c565b60405180910390f35b6100ca610315565b6040516100d79190611a54565b60405180910390f35b6100fa60048036038101906100f59190611a9b565b61053d565b005b610104610715565b6040516101119190611b58565b60405180910390f35b610134600480360381019061012f9190611698565b6109b8565b6040516101419190611b58565b60405180910390f35b610164600480360381019061015f9190611caf565b610c3f565b005b610180600480360381019061017b9190611caf565b610f7c565b005b61018a6111a0565b005b6001818154811061019c57600080fd5b90600052602060002090600602016000915090508060000160009054906101000a900473ffffffffffffffffffffffffffffffffffffffff16908060010154908060020180546101eb90611d69565b80601f016020809104026020016040519081016040528092919081815260200182805461021790611d69565b80156102645780601f1061023957610100808354040283529160200191610264565b820191906000526020600020905b81548152906001019060200180831161024757829003601f168201915b50505050509080600301805461027990611d69565b80601f01602080910402602001604051908101604052809291908181526020018280546102a590611d69565b80156102f25780601f106102c7576101008083540402835291602001916102f2565b820191906000526020600020905b8154815290600101906020018083116102d557829003601f168201915b5050505050908060040154908060050160009054906101000a900460ff16905086565b60606001805480602002602001604051908101604052809291908181526020016000905b8282101561053457838290600052602060002090600602016040518060c00160405290816000820160009054906101000a900473ffffffffffffffffffffffffffffffffffffffff1673ffffffffffffffffffffffffffffffffffffffff1673ffffffffffffffffffffffffffffffffffffffff168152602001600182015481526020016002820180546103cc90611d69565b80601f01602080910402602001604051908101604052809291908181526020018280546103f890611d69565b80156104455780601f1061041a57610100808354040283529160200191610445565b820191906000526020600020905b81548152906001019060200180831161042857829003601f168201915b5050505050815260200160038201805461045e90611d69565b80601f016020809104026020016040519081016040528092919081815260200182805461048a90611d69565b80156104d75780601f106104ac576101008083540402835291602001916104d7565b820191906000526020600020905b8154815290600101906020018083116104ba57829003601f168201915b50505050508152602001600482015481526020016005820160009054906101000a900460ff16600281111561050f5761050e6117a5565b5b6002811115610521576105206117a5565b5b8152505081526020019060010190610339565b50505050905090565b600360003373ffffffffffffffffffffffffffffffffffffffff1673ffffffffffffffffffffffffffffffffffffffff16815260200190815260200160002060009054906101000a900460ff166105c0576040517faca0832a00000000000000000000000000000000000000000000000000000000815260040160405180910390fd5b80600260003373ffffffffffffffffffffffffffffffffffffffff1673ffffffffffffffffffffffffffffffffffffffff16815260200190815260200160002060050160006101000a81548160ff02191690836002811115610625576106246117a5565b5b021790555060005b600180549050811015610711573373ffffffffffffffffffffffffffffffffffffffff166001828154811061066557610664611d9a565b5b906000526020600020906006020160000160009054906101000a900473ffffffffffffffffffffffffffffffffffffffff1673ffffffffffffffffffffffffffffffffffffffff16036107045781600182815481106106c7576106c6611d9a565b5b906000526020600020906006020160050160006101000a81548160ff021916908360028111156106fa576106f96117a5565b5b0217905550610711565b808060010191505061062d565b5050565b61071d611593565b600360003373ffffffffffffffffffffffffffffffffffffffff1673ffffffffffffffffffffffffffffffffffffffff16815260200190815260200160002060009054906101000a900460ff166107a0576040517faca0832a00000000000000000000000000000000000000000000000000000000815260040160405180910390fd5b600260003373ffffffffffffffffffffffffffffffffffffffff1673ffffffffffffffffffffffffffffffffffffffff1681526020019081526020016000206040518060c00160405290816000820160009054906101000a900473ffffffffffffffffffffffffffffffffffffffff1673ffffffffffffffffffffffffffffffffffffffff1673ffffffffffffffffffffffffffffffffffffffff1681526020016001820154815260200160028201805461085a90611d69565b80601f016020809104026020016040519081016040528092919081815260200182805461088690611d69565b80156108d35780601f106108a8576101008083540402835291602001916108d3565b820191906000526020600020905b8154815290600101906020018083116108b657829003601f168201915b505050505081526020016003820180546108ec90611d69565b80601f016020809104026020016040519081016040528092919081815260200182805461091890611d69565b80156109655780601f1061093a57610100808354040283529160200191610965565b820191906000526020600020905b81548152906001019060200180831161094857829003601f168201915b50505050508152602001600482015481526020016005820160009054906101000a900460ff16600281111561099d5761099c6117a5565b5b60028111156109af576109ae6117a5565b5b81525050905090565b6109c0611593565b60005b600180549050811015610c075782600182815481106109e5576109e4611d9a565b5b90600052602060002090600602016001015403610bfa5760018181548110610a1057610a0f611d9a565b5b90600052602060002090600602016040518060c00160405290816000820160009054906101000a900473ffffffffffffffffffffffffffffffffffffffff1673ffffffffffffffffffffffffffffffffffffffff1673ffffffffffffffffffffffffffffffffffffffff16815260200160018201548152602001600282018054610a9990611d69565b80601f0160208091040260200160405190810160405280929190818152602001828054610ac590611d69565b8015610b125780601f10610ae757610100808354040283529160200191610b12565b820191906000526020600020905b815481529060010190602001808311610af557829003601f168201915b50505050508152602001600382018054610b2b90611d69565b80601f0160208091040260200160405190810160405280929190818152602001828054610b5790611d69565b8015610ba45780601f10610b7957610100808354040283529160200191610ba4565b820191906000526020600020905b815481529060010190602001808311610b8757829003601f168201915b50505050508152602001600482015481526020016005820160009054906101000a900460ff166002811115610bdc57610bdb6117a5565b5b6002811115610bee57610bed6117a5565b5b81525050915050610c3a565b80806001019150506109c3565b506040517faca0832a00000000000000000000000000000000000000000000000000000000815260040160405180910390fd5b919050565b600360003373ffffffffffffffffffffffffffffffffffffffff1673ffffffffffffffffffffffffffffffffffffffff16815260200190815260200160002060009054906101000a900460ff1615610ccc576040517f08c379a0000000000000000000000000000000000000000000000000000000008152600401610cc390611e15565b60405180910390fd5b600080815480929190610cde90611e64565b919050555060006040518060c001604052803373ffffffffffffffffffffffffffffffffffffffff168152602001600054815260200185815260200184815260200183815260200160006002811115610d3a57610d396117a5565b5b8152509050600181908060018154018082558091505060019003906000526020600020906006020160009091909190915060008201518160000160006101000a81548173ffffffffffffffffffffffffffffffffffffffff021916908373ffffffffffffffffffffffffffffffffffffffff160217905550602082015181600101556040820151816002019081610dd19190612058565b506060820151816003019081610de79190612058565b506080820151816004015560a08201518160050160006101000a81548160ff02191690836002811115610e1d57610e1c6117a5565b5b0217905550505080600260003373ffffffffffffffffffffffffffffffffffffffff1673ffffffffffffffffffffffffffffffffffffffff16815260200190815260200160002060008201518160000160006101000a81548173ffffffffffffffffffffffffffffffffffffffff021916908373ffffffffffffffffffffffffffffffffffffffff160217905550602082015181600101556040820151816002019081610eca9190612058565b506060820151816003019081610ee09190612058565b506080820151816004015560a08201518160050160006101000a81548160ff02191690836002811115610f1657610f156117a5565b5b02179055509050506001600360003373ffffffffffffffffffffffffffffffffffffffff1673ffffffffffffffffffffffffffffffffffffffff16815260200190815260200160002060006101000a81548160ff02191690831515021790555050505050565b600360003373ffffffffffffffffffffffffffffffffffffffff1673ffffffffffffffffffffffffffffffffffffffff16815260200190815260200160002060009054906101000a900460ff16610fff576040517faca0832a00000000000000000000000000000000000000000000000000000000815260040160405180910390fd5b6000600260003373ffffffffffffffffffffffffffffffffffffffff1673ffffffffffffffffffffffffffffffffffffffff1681526020019081526020016000209050838160020190816110539190612058565b50828160030190816110659190612058565b5081816004018190555060005b600180549050811015611199573373ffffffffffffffffffffffffffffffffffffffff16600182815481106110aa576110a9611d9a565b5b906000526020600020906006020160000160009054906101000a900473ffffffffffffffffffffffffffffffffffffffff1673ffffffffffffffffffffffffffffffffffffffff160361118c57846001828154811061110c5761110b611d9a565b5b906000526020600020906006020160020190816111299190612058565b50836001828154811061113f5761113e611d9a565b5b9060005260206000209060060201600301908161115c9190612058565b50826001828154811061117257611171611d9a565b5b906000526020600020906006020160040181905550611199565b8080600101915050611072565b5050505050565b600360003373ffffffffffffffffffffffffffffffffffffffff1673ffffffffffffffffffffffffffffffffffffffff16815260200190815260200160002060009054906101000a900460ff16611223576040517faca0832a00000000000000000000000000000000000000000000000000000000815260040160405180910390fd5b60005b60018054905081101561148b573373ffffffffffffffffffffffffffffffffffffffff166001828154811061125e5761125d611d9a565b5b906000526020600020906006020160000160009054906101000a900473ffffffffffffffffffffffffffffffffffffffff1673ffffffffffffffffffffffffffffffffffffffff160361147e5760018080805490506112bd919061212a565b815481106112ce576112cd611d9a565b5b9060005260206000209060060201600182815481106112f0576112ef611d9a565b5b90600052602060002090600602016000820160009054906101000a900473ffffffffffffffffffffffffffffffffffffffff168160000160006101000a81548173ffffffffffffffffffffffffffffffffffffffff021916908373ffffffffffffffffffffffffffffffffffffffff16021790555060018201548160010155600282018160020190816113839190612174565b50600382018160030190816113989190612174565b50600482015481600401556005820160009054906101000a900460ff168160050160006101000a81548160ff021916908360028111156113db576113da6117a5565b5b021790555090505060018054806113f5576113f461225c565b5b6001900381819060005260206000209060060201600080820160006101000a81549073ffffffffffffffffffffffffffffffffffffffff0219169055600182016000905560028201600061144991906115f1565b60038201600061145991906115f1565b60048201600090556005820160006101000a81549060ff02191690555050905561148b565b8080600101915050611226565b50600260003373ffffffffffffffffffffffffffffffffffffffff1673ffffffffffffffffffffffffffffffffffffffff168152602001908152602001600020600080820160006101000a81549073ffffffffffffffffffffffffffffffffffffffff0219169055600182016000905560028201600061150b91906115f1565b60038201600061151b91906115f1565b60048201600090556005820160006101000a81549060ff021916905550506000600360003373ffffffffffffffffffffffffffffffffffffffff1673ffffffffffffffffffffffffffffffffffffffff16815260200190815260200160002060006101000a81548160ff021916908315150217905550565b6040518060c00160405280600073ffffffffffffffffffffffffffffffffffffffff16815260200160008152602001606081526020016060815260200160008152602001600060028111156115eb576115ea6117a5565b5b81525090565b5080546115fd90611d69565b6000825580601f1061160f575061162e565b601f01602090049060005260206000209081019061162d9190611631565b5b50565b5b8082111561164a576000816000905550600101611632565b5090565b6000604051905090565b600080fd5b600080fd5b6000819050919050565b61167581611662565b811461168057600080fd5b50565b6000813590506116928161166c565b92915050565b6000602082840312156116ae576116ad611658565b5b60006116bc84828501611683565b91505092915050565b600073ffffffffffffffffffffffffffffffffffffffff82169050919050565b60006116f0826116c5565b9050919050565b611700816116e5565b82525050565b61170f81611662565b82525050565b600081519050919050565b600082825260208201905092915050565b60005b8381101561174f578082015181840152602081019050611734565b60008484015250505050565b6000601f19601f8301169050919050565b600061177782611715565b6117818185611720565b9350611791818560208601611731565b61179a8161175b565b840191505092915050565b7f4e487b7100000000000000000000000000000000000000000000000000000000600052602160045260246000fd5b600381106117e5576117e46117a5565b5b50565b60008190506117f6826117d4565b919050565b6000611806826117e8565b9050919050565b611816816117fb565b82525050565b600060c08201905061183160008301896116f7565b61183e6020830188611706565b8181036040830152611850818761176c565b90508181036060830152611864818661176c565b90506118736080830185611706565b61188060a083018461180d565b979650505050505050565b600081519050919050565b600082825260208201905092915050565b6000819050602082019050919050565b6118c0816116e5565b82525050565b6118cf81611662565b82525050565b600082825260208201905092915050565b60006118f182611715565b6118fb81856118d5565b935061190b818560208601611731565b6119148161175b565b840191505092915050565b611928816117fb565b82525050565b600060c08301600083015161194660008601826118b7565b50602083015161195960208601826118c6565b506040830151848203604086015261197182826118e6565b9150506060830151848203606086015261198b82826118e6565b91505060808301516119a060808601826118c6565b5060a08301516119b360a086018261191f565b508091505092915050565b60006119ca838361192e565b905092915050565b6000602082019050919050565b60006119ea8261188b565b6119f48185611896565b935083602082028501611a06856118a7565b8060005b85811015611a425784840389528151611a2385826119be565b9450611a2e836119d2565b925060208a01995050600181019050611a0a565b50829750879550505050505092915050565b60006020820190508181036000830152611a6e81846119df565b905092915050565b60038110611a8357600080fd5b50565b600081359050611a9581611a76565b92915050565b600060208284031215611ab157611ab0611658565b5b6000611abf84828501611a86565b91505092915050565b600060c083016000830151611ae060008601826118b7565b506020830151611af360208601826118c6565b5060408301518482036040860152611b0b82826118e6565b91505060608301518482036060860152611b2582826118e6565b9150506080830151611b3a60808601826118c6565b5060a0830151611b4d60a086018261191f565b508091505092915050565b60006020820190508181036000830152611b728184611ac8565b905092915050565b600080fd5b600080fd5b7f4e487b7100000000000000000000000000000000000000000000000000000000600052604160045260246000fd5b611bbc8261175b565b810181811067ffffffffffffffff82111715611bdb57611bda611b84565b5b80604052505050565b6000611bee61164e565b9050611bfa8282611bb3565b919050565b600067ffffffffffffffff821115611c1a57611c19611b84565b5b611c238261175b565b9050602081019050919050565b82818337600083830152505050565b6000611c52611c4d84611bff565b611be4565b905082815260208101848484011115611c6e57611c6d611b7f565b5b611c79848285611c30565b509392505050565b600082601f830112611c9657611c95611b7a565b5b8135611ca6848260208601611c3f565b91505092915050565b600080600060608486031215611cc857611cc7611658565b5b600084013567ffffffffffffffff811115611ce657611ce561165d565b5b611cf286828701611c81565b935050602084013567ffffffffffffffff811115611d1357611d1261165d565b5b611d1f86828701611c81565b9250506040611d3086828701611683565b9150509250925092565b7f4e487b7100000000000000000000000000000000000000000000000000000000600052602260045260246000fd5b60006002820490506001821680611d8157607f821691505b602082108103611d9457611d93611d3a565b5b50919050565b7f4e487b7100000000000000000000000000000000000000000000000000000000600052603260045260246000fd5b7f53747564656e7420616c72656164792072656769737465726564000000000000600082015250565b6000611dff601a83611720565b9150611e0a82611dc9565b602082019050919050565b60006020820190508181036000830152611e2e81611df2565b9050919050565b7f4e487b7100000000000000000000000000000000000000000000000000000000600052601160045260246000fd5b6000611e6f82611662565b91507fffffffffffffffffffffffffffffffffffffffffffffffffffffffffffffffff8203611ea157611ea0611e35565b5b600182019050919050565b60008190508160005260206000209050919050565b60006020601f8301049050919050565b600082821b905092915050565b600060088302611f0e7fffffffffffffffffffffffffffffffffffffffffffffffffffffffffffffffff82611ed1565b611f188683611ed1565b95508019841693508086168417925050509392505050565b6000819050919050565b6000611f55611f50611f4b84611662565b611f30565b611662565b9050919050565b6000819050919050565b611f6f83611f3a565b611f83611f7b82611f5c565b848454611ede565b825550505050565b600090565b611f98611f8b565b611fa3818484611f66565b505050565b5b81811015611fc757611fbc600082611f90565b600181019050611fa9565b5050565b601f82111561200c57611fdd81611eac565b611fe684611ec1565b81016020851015611ff5578190505b61200961200185611ec1565b830182611fa8565b50505b505050565b600082821c905092915050565b600061202f60001984600802612011565b1980831691505092915050565b6000612048838361201e565b9150826002028217905092915050565b61206182611715565b67ffffffffffffffff81111561207a57612079611b84565b5b6120848254611d69565b61208f828285611fcb565b600060209050601f8311600181146120c257600084156120b0578287015190505b6120ba858261203c565b865550612122565b601f1984166120d086611eac565b60005b828110156120f8578489015182556001820191506020850194506020810190506120d3565b868310156121155784890151612111601f89168261201e565b8355505b6001600288020188555050505b505050505050565b600061213582611662565b915061214083611662565b925082820390508181111561215857612157611e35565b5b92915050565b60008154905061216d81611d69565b9050919050565b81810361218257505061225a565b61218b8261215e565b67ffffffffffffffff8111156121a4576121a3611b84565b5b6121ae8254611d69565b6121b9828285611fcb565b6000601f8311600181146121e857600084156121d6578287015490505b6121e0858261203c565b865550612253565b601f1984166121f687611eac565b965061220186611eac565b60005b8281101561222957848901548255600182019150600185019450602081019050612204565b868310156122465784890154612242601f89168261201e565b8355505b6001600288020188555050505b5050505050505b565b7f4e487b7100000000000000000000000000000000000000000000000000000000600052603160045260246000fdfea2646970667358221220791fa5edc7e68e3e16b66092ead10a000aa40c6d9f5d72087727321c65a3b64464736f6c634300081e0033",
  "linkReferences": {},
  "deployedLinkReferences": {}
}