{
  "_format": "hh-sol-artifact-1",
  "contractName": "StudentManager",
  "sourceName": "contracts/StudentManager.sol",
  "abi": [
    {
      "inputs": [
        {
          "internalType": "string",
          "name": "_name",
          "type": "string"
        },
        {
          "internalType": "uint256",
          "name": "age",
          "type": "uint256"
        }
      ],
      "name": "addStudent",
      "outputs": [],
      "stateMutability": "nonpayable",
      "type": "function"
    },
    {
      "inputs": [
        {
          "internalType": "uint256",
          "name": "id",
          "type": "uint256"
        }
      ],
      "name": "deleteStudent",
      "outputs": [],
      "stateMutability": "nonpayable",
      "type": "function"
    },
    {
      "inputs": [
        {
          "internalType": "uint256",
          "name": "_id",
          "type": "uint256"
        }
      ],
      "name": "getStudent",
      "outputs": [
        {
          "internalType": "string",
          "name": "",
          "type": "string"
        }
      ],
      "stateMutability": "view",
      "type": "function"
    },
    {
      "inputs": [
        {
          "internalType": "uint256",
          "name": "_id",
          "type": "uint256"
        }
      ],
      "name": "getStudentStatus",
      "outputs": [
        {
          "internalType": "enum StudentManager.Status",
          "name": "",
          "type": "uint8"
        }
      ],
      "stateMutability": "view",
      "type": "function"
    },
    {
      "inputs": [],
      "name": "studentCount",
      "outputs": [
        {
          "internalType": "uint256",
          "name": "",
          "type": "uint256"
        }
      ],
      "stateMutability": "view",
      "type": "function"
    },
    {
      "inputs": [
        {
          "internalType": "uint256",
          "name": "",
          "type": "uint256"
        }
      ],
      "name": "students",
      "outputs": [
        {
          "internalType": "string",
          "name": "name",
          "type": "string"
        },
        {
          "internalType": "uint256",
          "name": "id",
          "type": "uint256"
        },
        {
          "internalType": "uint256",
          "name": "age",
          "type": "uint256"
        },
        {
          "internalType": "enum StudentManager.Status",
          "name": "status",
          "type": "uint8"
        }
      ],
      "stateMutability": "view",
      "type": "function"
    },
    {
      "inputs": [
        {
          "internalType": "uint256",
          "name": "_id",
          "type": "uint256"
        },
        {
          "internalType": "string",
          "name": "_name",
          "type": "string"
        },
        {
          "internalType": "uint256",
          "name": "age",
          "type": "uint256"
        },
        {
          "internalType": "enum StudentManager.Status",
          "name": "_status",
          "type": "uint8"
        }
      ],
      "name": "updateStudent",
      "outputs": [],
      "stateMutability": "nonpayable",
      "type": "function"
    }
  ],
  "bytecode": "0x6080604052600060015534801561001557600080fd5b50610eeb806100256000396000f3fe608060405234801561001057600080fd5b506004361061007d5760003560e01c806392fe60501161005b57806392fe605014610101578063b645307d1461011d578063baea377614610139578063e581f9ee146101695761007d565b806306ead22e146100825780630e5eeef7146100b5578063642f9163146100d1575b600080fd5b61009c600480360381019061009791906106a5565b610187565b6040516100ac94939291906107e8565b60405180910390f35b6100cf60048036038101906100ca9190610969565b61025c565b005b6100eb60048036038101906100e691906106a5565b610335565b6040516100f891906109c5565b60405180910390f35b61011b60048036038101906101169190610a0c565b610430565b005b610137600480360381019061013291906106a5565b61051c565b005b610153600480360381019061014e91906106a5565b610578565b6040516101609190610a8f565b60405180910390f35b6101716105f8565b60405161017e9190610aaa565b60405180910390f35b6000818154811061019757600080fd5b90600052602060002090600402016000915090508060000180546101ba90610af4565b80601f01602080910402602001604051908101604052809291908181526020018280546101e690610af4565b80156102335780601f1061020857610100808354040283529160200191610233565b820191906000526020600020905b81548152906001019060200180831161021657829003601f168201915b5050505050908060010154908060020154908060030160009054906101000a900460ff16905084565b6000604051806080016040528084815260200160015481526020018381526020016000600281111561029157610290610771565b5b815250908060018154018082558091505060019003906000526020600020906004020160009091909190915060008201518160000190816102d29190610cd1565b50602082015181600101556040820151816002015560608201518160030160006101000a81548160ff0219169083600281111561031257610311610771565b5b021790555050506001600081548092919061032c90610dd2565b91905055505050565b6060600154821061037b576040517f08c379a000000000000000000000000000000000000000000000000000000000815260040161037290610e66565b60405180910390fd5b6000828154811061038f5761038e610e86565b5b906000526020600020906004020160000180546103ab90610af4565b80601f01602080910402602001604051908101604052809291908181526020018280546103d790610af4565b80156104245780601f106103f957610100808354040283529160200191610424565b820191906000526020600020905b81548152906001019060200180831161040757829003601f168201915b50505050509050919050565b6001548410610474576040517f08c379a000000000000000000000000000000000000000000000000000000000815260040161046b90610e66565b60405180910390fd5b600080858154811061048957610488610e86565b5b90600052602060002090600402019050838160000190816104aa9190610cd1565b50828160020181905550600060028111156104c8576104c7610771565b5b8260028111156104db576104da610771565b5b036104e75760006104ea565b60025b8160030160006101000a81548160ff021916908360028111156105105761050f610771565b5b02179055505050505050565b600081815481106105305761052f610e86565b5b90600052602060002090600402016000808201600061054f91906105fe565b600182016000905560028201600090556003820160006101000a81549060ff0219169055505050565b600060015482106105be576040517f08c379a00000000000000000000000000000000000000000000000000000000081526004016105b590610e66565b60405180910390fd5b600082815481106105d2576105d1610e86565b5b906000526020600020906004020160030160009054906101000a900460ff169050919050565b60015481565b50805461060a90610af4565b6000825580601f1061061c575061063b565b601f01602090049060005260206000209081019061063a919061063e565b5b50565b5b8082111561065757600081600090555060010161063f565b5090565b6000604051905090565b600080fd5b600080fd5b6000819050919050565b6106828161066f565b811461068d57600080fd5b50565b60008135905061069f81610679565b92915050565b6000602082840312156106bb576106ba610665565b5b60006106c984828501610690565b91505092915050565b600081519050919050565b600082825260208201905092915050565b60005b8381101561070c5780820151818401526020810190506106f1565b60008484015250505050565b6000601f19601f8301169050919050565b6000610734826106d2565b61073e81856106dd565b935061074e8185602086016106ee565b61075781610718565b840191505092915050565b61076b8161066f565b82525050565b7f4e487b7100000000000000000000000000000000000000000000000000000000600052602160045260246000fd5b600381106107b1576107b0610771565b5b50565b60008190506107c2826107a0565b919050565b60006107d2826107b4565b9050919050565b6107e2816107c7565b82525050565b600060808201905081810360008301526108028187610729565b90506108116020830186610762565b61081e6040830185610762565b61082b60608301846107d9565b95945050505050565b600080fd5b600080fd5b7f4e487b7100000000000000000000000000000000000000000000000000000000600052604160045260246000fd5b61087682610718565b810181811067ffffffffffffffff821117156108955761089461083e565b5b80604052505050565b60006108a861065b565b90506108b4828261086d565b919050565b600067ffffffffffffffff8211156108d4576108d361083e565b5b6108dd82610718565b9050602081019050919050565b82818337600083830152505050565b600061090c610907846108b9565b61089e565b90508281526020810184848401111561092857610927610839565b5b6109338482856108ea565b509392505050565b600082601f8301126109505761094f610834565b5b81356109608482602086016108f9565b91505092915050565b600080604083850312156109805761097f610665565b5b600083013567ffffffffffffffff81111561099e5761099d61066a565b5b6109aa8582860161093b565b92505060206109bb85828601610690565b9150509250929050565b600060208201905081810360008301526109df8184610729565b905092915050565b600381106109f457600080fd5b50565b600081359050610a06816109e7565b92915050565b60008060008060808587031215610a2657610a25610665565b5b6000610a3487828801610690565b945050602085013567ffffffffffffffff811115610a5557610a5461066a565b5b610a618782880161093b565b9350506040610a7287828801610690565b9250506060610a83878288016109f7565b91505092959194509250565b6000602082019050610aa460008301846107d9565b92915050565b6000602082019050610abf6000830184610762565b92915050565b7f4e487b7100000000000000000000000000000000000000000000000000000000600052602260045260246000fd5b60006002820490506001821680610b0c57607f821691505b602082108103610b1f57610b1e610ac5565b5b50919050565b60008190508160005260206000209050919050565b60006020601f8301049050919050565b600082821b905092915050565b600060088302610b877fffffffffffffffffffffffffffffffffffffffffffffffffffffffffffffffff82610b4a565b610b918683610b4a565b95508019841693508086168417925050509392505050565b6000819050919050565b6000610bce610bc9610bc48461066f565b610ba9565b61066f565b9050919050565b6000819050919050565b610be883610bb3565b610bfc610bf482610bd5565b848454610b57565b825550505050565b600090565b610c11610c04565b610c1c818484610bdf565b505050565b5b81811015610c4057610c35600082610c09565b600181019050610c22565b5050565b601f821115610c8557610c5681610b25565b610c5f84610b3a565b81016020851015610c6e578190505b610c82610c7a85610b3a565b830182610c21565b50505b505050565b600082821c905092915050565b6000610ca860001984600802610c8a565b1980831691505092915050565b6000610cc18383610c97565b9150826002028217905092915050565b610cda826106d2565b67ffffffffffffffff811115610cf357610cf261083e565b5b610cfd8254610af4565b610d08828285610c44565b600060209050601f831160018114610d3b5760008415610d29578287015190505b610d338582610cb5565b865550610d9b565b601f198416610d4986610b25565b60005b82811015610d7157848901518255600182019150602085019450602081019050610d4c565b86831015610d8e5784890151610d8a601f891682610c97565b8355505b6001600288020188555050505b505050505050565b7f4e487b7100000000000000000000000000000000000000000000000000000000600052601160045260246000fd5b6000610ddd8261066f565b91507fffffffffffffffffffffffffffffffffffffffffffffffffffffffffffffffff8203610e0f57610e0e610da3565b5b600182019050919050565b7f496e76616c696420496400000000000000000000000000000000000000000000600082015250565b6000610e50600a836106dd565b9150610e5b82610e1a565b602082019050919050565b60006020820190508181036000830152610e7f81610e43565b9050919050565b7f4e487b7100000000000000000000000000000000000000000000000000000000600052603260045260246000fdfea2646970667358221220d0c13750ffdfc93547fdf1a324366d6e75cc3296933d9ad1df16b4b26e0c41ed64736f6c63430008170033",
  "linkReferences": {},
  "deployedLinkReferences": {}
}